{
  "contractName": "GeneratorBase",
  "abi": [
    {
      "inputs": [
        {
          "internalType": "uint256",
          "name": "_fee",
          "type": "uint256"
        },
        {
          "internalType": "address payable",
          "name": "_reciver",
          "type": "address"
        },
        {
          "internalType": "contract IStdReference",
          "name": "_ref",
          "type": "address"
        }
      ],
      "stateMutability": "nonpayable",
      "type": "constructor"
    },
    {
      "anonymous": false,
      "inputs": [
        {
          "indexed": true,
          "internalType": "address",
          "name": "owner",
          "type": "address"
        },
        {
          "indexed": true,
          "internalType": "address",
          "name": "approved",
          "type": "address"
        },
        {
          "indexed": true,
          "internalType": "uint256",
          "name": "tokenId",
          "type": "uint256"
        }
      ],
      "name": "Approval",
      "type": "event"
    },
    {
      "anonymous": false,
      "inputs": [
        {
          "indexed": true,
          "internalType": "address",
          "name": "owner",
          "type": "address"
        },
        {
          "indexed": true,
          "internalType": "address",
          "name": "operator",
          "type": "address"
        },
        {
          "indexed": false,
          "internalType": "bool",
          "name": "approved",
          "type": "bool"
        }
      ],
      "name": "ApprovalForAll",
      "type": "event"
    },
    {
      "anonymous": false,
      "inputs": [
        {
          "indexed": true,
          "internalType": "address",
          "name": "previousOwner",
          "type": "address"
        },
        {
          "indexed": true,
          "internalType": "address",
          "name": "newOwner",
          "type": "address"
        }
      ],
      "name": "OwnershipTransferred",
      "type": "event"
    },
    {
      "anonymous": false,
      "inputs": [
        {
          "indexed": true,
          "internalType": "address",
          "name": "from",
          "type": "address"
        },
        {
          "indexed": true,
          "internalType": "address",
          "name": "to",
          "type": "address"
        },
        {
          "indexed": true,
          "internalType": "uint256",
          "name": "tokenId",
          "type": "uint256"
        }
      ],
      "name": "Transfer",
      "type": "event"
    },
    {
      "inputs": [],
      "name": "USD_FEE",
      "outputs": [
        {
          "internalType": "uint256",
          "name": "",
          "type": "uint256"
        }
      ],
      "stateMutability": "view",
      "type": "function",
      "constant": true
    },
    {
      "inputs": [
        {
          "internalType": "address",
          "name": "to",
          "type": "address"
        },
        {
          "internalType": "uint256",
          "name": "tokenId",
          "type": "uint256"
        }
      ],
      "name": "approve",
      "outputs": [],
      "stateMutability": "nonpayable",
      "type": "function"
    },
    {
      "inputs": [
        {
          "internalType": "address",
          "name": "owner",
          "type": "address"
        }
      ],
      "name": "balanceOf",
      "outputs": [
        {
          "internalType": "uint256",
          "name": "",
          "type": "uint256"
        }
      ],
      "stateMutability": "view",
      "type": "function",
      "constant": true
    },
    {
      "inputs": [],
      "name": "baseURI",
      "outputs": [
        {
          "internalType": "string",
          "name": "",
          "type": "string"
        }
      ],
      "stateMutability": "view",
      "type": "function",
      "constant": true
    },
    {
      "inputs": [
        {
          "internalType": "uint256",
          "name": "",
          "type": "uint256"
        }
      ],
      "name": "documents",
      "outputs": [
        {
          "internalType": "uint256",
          "name": "id",
          "type": "uint256"
        },
        {
          "internalType": "string",
          "name": "uuid",
          "type": "string"
        },
        {
          "internalType": "string",
          "name": "title",
          "type": "string"
        },
        {
          "internalType": "string",
          "name": "description",
          "type": "string"
        },
        {
          "internalType": "string",
          "name": "uri",
          "type": "string"
        },
        {
          "internalType": "uint256",
          "name": "validationDate",
          "type": "uint256"
        },
        {
          "internalType": "uint256",
          "name": "timestamp",
          "type": "uint256"
        },
        {
          "internalType": "string",
          "name": "email",
          "type": "string"
        },
        {
          "internalType": "string",
          "name": "website",
          "type": "string"
        },
        {
          "internalType": "address",
          "name": "minter",
          "type": "address"
        },
        {
          "internalType": "string",
          "name": "ipaddress",
          "type": "string"
        }
      ],
      "stateMutability": "view",
      "type": "function",
      "constant": true
    },
    {
      "inputs": [],
      "name": "feeReciver",
      "outputs": [
        {
          "internalType": "address payable",
          "name": "",
          "type": "address"
        }
      ],
      "stateMutability": "view",
      "type": "function",
      "constant": true
    },
    {
      "inputs": [
        {
          "internalType": "uint256",
          "name": "tokenId",
          "type": "uint256"
        }
      ],
      "name": "getApproved",
      "outputs": [
        {
          "internalType": "address",
          "name": "",
          "type": "address"
        }
      ],
      "stateMutability": "view",
      "type": "function",
      "constant": true
    },
    {
      "inputs": [
        {
          "internalType": "address",
          "name": "owner",
          "type": "address"
        },
        {
          "internalType": "address",
          "name": "operator",
          "type": "address"
        }
      ],
      "name": "isApprovedForAll",
      "outputs": [
        {
          "internalType": "bool",
          "name": "",
          "type": "bool"
        }
      ],
      "stateMutability": "view",
      "type": "function",
      "constant": true
    },
    {
      "inputs": [],
      "name": "name",
      "outputs": [
        {
          "internalType": "string",
          "name": "",
          "type": "string"
        }
      ],
      "stateMutability": "view",
      "type": "function",
      "constant": true
    },
    {
      "inputs": [],
      "name": "owner",
      "outputs": [
        {
          "internalType": "address",
          "name": "",
          "type": "address"
        }
      ],
      "stateMutability": "view",
      "type": "function",
      "constant": true
    },
    {
      "inputs": [
        {
          "internalType": "uint256",
          "name": "tokenId",
          "type": "uint256"
        }
      ],
      "name": "ownerOf",
      "outputs": [
        {
          "internalType": "address",
          "name": "",
          "type": "address"
        }
      ],
      "stateMutability": "view",
      "type": "function",
      "constant": true
    },
    {
      "inputs": [],
      "name": "renounceOwnership",
      "outputs": [],
      "stateMutability": "nonpayable",
      "type": "function"
    },
    {
      "inputs": [
        {
          "internalType": "address",
          "name": "from",
          "type": "address"
        },
        {
          "internalType": "address",
          "name": "to",
          "type": "address"
        },
        {
          "internalType": "uint256",
          "name": "tokenId",
          "type": "uint256"
        }
      ],
      "name": "safeTransferFrom",
      "outputs": [],
      "stateMutability": "nonpayable",
      "type": "function"
    },
    {
      "inputs": [
        {
          "internalType": "address",
          "name": "from",
          "type": "address"
        },
        {
          "internalType": "address",
          "name": "to",
          "type": "address"
        },
        {
          "internalType": "uint256",
          "name": "tokenId",
          "type": "uint256"
        },
        {
          "internalType": "bytes",
          "name": "_data",
          "type": "bytes"
        }
      ],
      "name": "safeTransferFrom",
      "outputs": [],
      "stateMutability": "nonpayable",
      "type": "function"
    },
    {
      "inputs": [
        {
          "internalType": "address",
          "name": "operator",
          "type": "address"
        },
        {
          "internalType": "bool",
          "name": "approved",
          "type": "bool"
        }
      ],
      "name": "setApprovalForAll",
      "outputs": [],
      "stateMutability": "nonpayable",
      "type": "function"
    },
    {
      "inputs": [
        {
          "internalType": "bytes4",
          "name": "interfaceId",
          "type": "bytes4"
        }
      ],
      "name": "supportsInterface",
      "outputs": [
        {
          "internalType": "bool",
          "name": "",
          "type": "bool"
        }
      ],
      "stateMutability": "view",
      "type": "function",
      "constant": true
    },
    {
      "inputs": [],
      "name": "symbol",
      "outputs": [
        {
          "internalType": "string",
          "name": "",
          "type": "string"
        }
      ],
      "stateMutability": "view",
      "type": "function",
      "constant": true
    },
    {
      "inputs": [
        {
          "internalType": "uint256",
          "name": "index",
          "type": "uint256"
        }
      ],
      "name": "tokenByIndex",
      "outputs": [
        {
          "internalType": "uint256",
          "name": "",
          "type": "uint256"
        }
      ],
      "stateMutability": "view",
      "type": "function",
      "constant": true
    },
    {
      "inputs": [
        {
          "internalType": "address",
          "name": "owner",
          "type": "address"
        },
        {
          "internalType": "uint256",
          "name": "index",
          "type": "uint256"
        }
      ],
      "name": "tokenOfOwnerByIndex",
      "outputs": [
        {
          "internalType": "uint256",
          "name": "",
          "type": "uint256"
        }
      ],
      "stateMutability": "view",
      "type": "function",
      "constant": true
    },
    {
      "inputs": [
        {
          "internalType": "uint256",
          "name": "tokenId",
          "type": "uint256"
        }
      ],
      "name": "tokenURI",
      "outputs": [
        {
          "internalType": "string",
          "name": "",
          "type": "string"
        }
      ],
      "stateMutability": "view",
      "type": "function",
      "constant": true
    },
    {
      "inputs": [],
      "name": "totalSupply",
      "outputs": [
        {
          "internalType": "uint256",
          "name": "",
          "type": "uint256"
        }
      ],
      "stateMutability": "view",
      "type": "function",
      "constant": true
    },
    {
      "inputs": [
        {
          "internalType": "address",
          "name": "from",
          "type": "address"
        },
        {
          "internalType": "address",
          "name": "to",
          "type": "address"
        },
        {
          "internalType": "uint256",
          "name": "tokenId",
          "type": "uint256"
        }
      ],
      "name": "transferFrom",
      "outputs": [],
      "stateMutability": "nonpayable",
      "type": "function"
    },
    {
      "inputs": [
        {
          "internalType": "address",
          "name": "newOwner",
          "type": "address"
        }
      ],
      "name": "transferOwnership",
      "outputs": [],
      "stateMutability": "nonpayable",
      "type": "function"
    },
    {
      "stateMutability": "payable",
      "type": "receive",
      "payable": true
    },
    {
      "inputs": [
        {
          "internalType": "string",
          "name": "_uuid",
          "type": "string"
        },
        {
          "internalType": "string",
          "name": "_title",
          "type": "string"
        },
        {
          "internalType": "string",
          "name": "_description",
          "type": "string"
        },
        {
          "internalType": "string",
          "name": "_uri",
          "type": "string"
        },
        {
          "internalType": "uint256",
          "name": "_validationDate",
          "type": "uint256"
        },
        {
          "internalType": "string",
          "name": "_email",
          "type": "string"
        },
        {
          "internalType": "string",
          "name": "_website",
          "type": "string"
        },
        {
          "internalType": "string",
          "name": "_ipaddress",
          "type": "string"
        }
      ],
      "name": "addDocument",
      "outputs": [
        {
          "internalType": "uint256",
          "name": "",
          "type": "uint256"
        }
      ],
      "stateMutability": "payable",
      "type": "function",
      "payable": true
    },
    {
      "inputs": [
        {
          "internalType": "address payable",
          "name": "newReciver",
          "type": "address"
        }
      ],
      "name": "setNewRevicer",
      "outputs": [],
      "stateMutability": "nonpayable",
      "type": "function"
    },
    {
      "inputs": [
        {
          "internalType": "uint256",
          "name": "newFee",
          "type": "uint256"
        }
      ],
      "name": "setNewFeeInUSD",
      "outputs": [],
      "stateMutability": "nonpayable",
      "type": "function"
    },
    {
      "inputs": [
        {
          "internalType": "uint256",
          "name": "documentId",
          "type": "uint256"
        }
      ],
      "name": "getDocument",
      "outputs": [
        {
          "internalType": "uint256",
          "name": "id",
          "type": "uint256"
        },
        {
          "internalType": "string",
          "name": "uuid",
          "type": "string"
        },
        {
          "internalType": "string",
          "name": "title",
          "type": "string"
        },
        {
          "internalType": "string",
          "name": "description",
          "type": "string"
        },
        {
          "internalType": "string",
          "name": "uri",
          "type": "string"
        },
        {
          "internalType": "uint256",
          "name": "validationDate",
          "type": "uint256"
        },
        {
          "internalType": "uint256",
          "name": "timestamp",
          "type": "uint256"
        },
        {
          "internalType": "string",
          "name": "email",
          "type": "string"
        },
        {
          "internalType": "string",
          "name": "website",
          "type": "string"
        },
        {
          "internalType": "address",
          "name": "minter",
          "type": "address"
        },
        {
          "internalType": "string",
          "name": "ipaddress",
          "type": "string"
        }
      ],
      "stateMutability": "view",
      "type": "function",
      "constant": true
    },
    {
      "inputs": [],
      "name": "getTotalDocuments",
      "outputs": [
        {
          "internalType": "uint256",
          "name": "",
          "type": "uint256"
        }
      ],
      "stateMutability": "view",
      "type": "function",
      "constant": true
    },
    {
      "inputs": [],
      "name": "getCurrentPriceInEth",
      "outputs": [
        {
          "internalType": "uint256",
          "name": "",
          "type": "uint256"
        }
      ],
      "stateMutability": "view",
      "type": "function",
      "constant": true
    },
    {
      "inputs": [
        {
          "internalType": "uint256",
          "name": "documentId",
          "type": "uint256"
        }
      ],
      "name": "getURI",
      "outputs": [
        {
          "internalType": "string",
          "name": "uri",
          "type": "string"
        }
      ],
      "stateMutability": "view",
      "type": "function",
      "constant": true
    }
  ],
  "bytecode": "0x60806040523480156200001157600080fd5b50604051620033ab380380620033ab833981016040819052620000349162000285565b6040518060400160405280600e81526020016d47656e657261746f722e70696e6b60901b8152506040518060400160405280600981526020016823a2a722a920aa27a960b91b81525060006200008f6200018760201b60201c565b600080546001600160a01b0319166001600160a01b0383169081178255604051929350917f8be0079c531659141344cd1fd0a4f28419497f9722a3daafe3b4186f6b6457e0908290a350620000eb6301ffc9a760e01b6200018b565b815162000100906007906020850190620001e9565b50805162000116906008906020840190620001e9565b50620001296380ac58cd60e01b6200018b565b6200013b635b5e139f60e01b6200018b565b6200014d63780e9d6360e01b6200018b565b5050600c92909255600b80546001600160a01b039283166001600160a01b031991821617909155600d80549290931691161790556200031c565b3390565b6001600160e01b03198082161415620001c15760405162461bcd60e51b8152600401620001b890620002cc565b60405180910390fd5b6001600160e01b0319166000908152600160208190526040909120805460ff19169091179055565b828054600181600116156101000203166002900490600052602060002090601f016020900481019282601f106200022c57805160ff19168380011785556200025c565b828001600101855582156200025c579182015b828111156200025c5782518255916020019190600101906200023f565b506200026a9291506200026e565b5090565b5b808211156200026a57600081556001016200026f565b6000806000606084860312156200029a578283fd5b835192506020840151620002ae8162000303565b6040850151909250620002c18162000303565b809150509250925092565b6020808252601c908201527f4552433136353a20696e76616c696420696e7465726661636520696400000000604082015260600190565b6001600160a01b03811681146200031957600080fd5b50565b61307f806200032c6000396000f3fe6080604052600436106101915760003560e01c8063706a6c13116100d7578063a22cb46511610085578063a22cb4651461044e578063b88d4fde1461046e578063c2ed2b051461048e578063c87b56dd146104ae578063d8f3f45c146104ce578063e90e7ad4146104e3578063e985e9c5146104f8578063f2fde38b1461051857610198565b8063706a6c13146103a757806370a08231146103c7578063715018a6146103e75780638afa0e45146103fc5780638da5cb5b1461040f578063947991bc1461042457806395d89b411461043957610198565b806323b872dd1161013f57806323b872dd146102a6578063292e833b146102c65780632f745c59146102db5780633f9b250a146102fb57806342842e0e146103325780634f6ccce7146103525780636352211e146103725780636c0360eb1461039257610198565b806301ffc9a71461019d57806306fdde03146101d3578063081812fc146101f5578063095ea7b3146102225780630da12fe21461024457806318160ddd146102645780631aa347dc1461028657610198565b3661019857005b600080fd5b3480156101a957600080fd5b506101bd6101b8366004612640565b610538565b6040516101ca91906128bf565b60405180910390f35b3480156101df57600080fd5b506101e861055b565b6040516101ca91906128ca565b34801561020157600080fd5b506102156102103660046127d2565b6105f1565b6040516101ca919061286e565b34801561022e57600080fd5b5061024261023d366004612615565b61063d565b005b34801561025057600080fd5b5061024261025f3660046127d2565b6106d5565b34801561027057600080fd5b50610279610719565b6040516101ca9190612ea7565b34801561029257600080fd5b506101e86102a13660046127d2565b61072a565b3480156102b257600080fd5b506102426102c136600461253a565b61073b565b3480156102d257600080fd5b50610215610773565b3480156102e757600080fd5b506102796102f6366004612615565b610782565b34801561030757600080fd5b5061031b6103163660046127d2565b6107ab565b6040516101ca9b9a99989796959493929190612eb0565b34801561033e57600080fd5b5061024261034d36600461253a565b610caf565b34801561035e57600080fd5b5061027961036d3660046127d2565b610cca565b34801561037e57600080fd5b5061021561038d3660046127d2565b610ce0565b34801561039e57600080fd5b506101e8610d08565b3480156103b357600080fd5b506102426103c23660046124e6565b610d69565b3480156103d357600080fd5b506102796103e23660046124e6565b610dca565b3480156103f357600080fd5b50610242610e13565b61027961040a366004612678565b610e9c565b34801561041b57600080fd5b506102156110b5565b34801561043057600080fd5b506102796110c4565b34801561044557600080fd5b506101e86110ca565b34801561045a57600080fd5b506102426104693660046125e4565b61112b565b34801561047a57600080fd5b5061024261048936600461257a565b6111f9565b34801561049a57600080fd5b5061031b6104a93660046127d2565b611238565b3480156104ba57600080fd5b506101e86104c93660046127d2565b61168e565b3480156104da57600080fd5b506102796117d4565b3480156104ef57600080fd5b506102796117de565b34801561050457600080fd5b506101bd610513366004612502565b6117e4565b34801561052457600080fd5b506102426105333660046124e6565b611812565b6001600160e01b0319811660009081526001602052604090205460ff165b919050565b60078054604080516020601f60026000196101006001881615020190951694909404938401819004810282018101909252828152606093909290918301828280156105e75780601f106105bc576101008083540402835291602001916105e7565b820191906000526020600020905b8154815290600101906020018083116105ca57829003601f168201915b5050505050905090565b60006105fc826118d2565b6106215760405162461bcd60e51b815260040161061890612c42565b60405180910390fd5b506000908152600560205260409020546001600160a01b031690565b600061064882610ce0565b9050806001600160a01b0316836001600160a01b0316141561067c5760405162461bcd60e51b815260040161061890612da7565b806001600160a01b031661068e6118df565b6001600160a01b031614806106aa57506106aa816105136118df565b6106c65760405162461bcd60e51b815260040161061890612ae8565b6106d083836118e3565b505050565b6106dd6118df565b6001600160a01b03166106ee6110b5565b6001600160a01b0316146107145760405162461bcd60e51b815260040161061890612cda565b600c55565b60006107256003611951565b905090565b60606107358261168e565b92915050565b61074c6107466118df565b8261195c565b6107685760405162461bcd60e51b815260040161061890612e1f565b6106d08383836119e1565b600b546001600160a01b031681565b6001600160a01b03821660009081526002602052604081206107a49083611aef565b9392505050565b6000606080606080600080606080600060606000600e8d815481106107cc57fe5b90600052602060002090600b020190508c9b50806001018054600181600116156101000203166002900480601f0160208091040260200160405190810160405280929190818152602001828054600181600116156101000203166002900480156108775780601f1061084c57610100808354040283529160200191610877565b820191906000526020600020905b81548152906001019060200180831161085a57829003601f168201915b50505050509a50806002018054600181600116156101000203166002900480601f0160208091040260200160405190810160405280929190818152602001828054600181600116156101000203166002900480156109165780601f106108eb57610100808354040283529160200191610916565b820191906000526020600020905b8154815290600101906020018083116108f957829003601f168201915b5050505060038301805460408051602060026001851615610100026000190190941693909304601f8101849004840282018401909252818152949e509192508301828280156109a65780601f1061097b576101008083540402835291602001916109a6565b820191906000526020600020905b81548152906001019060200180831161098957829003601f168201915b5050505060048301805460408051602060026001851615610100026000190190941693909304601f8101849004840282018401909252818152949d50919250830182828015610a365780601f10610a0b57610100808354040283529160200191610a36565b820191906000526020600020905b815481529060010190602001808311610a1957829003601f168201915b505050506005830154600684015460028086018054604080516020601f6000196101006001871615020190941695909504928301859004850281018501909152818152969e50939c50919a50909250830182828015610ad65780601f10610aab57610100808354040283529160200191610ad6565b820191906000526020600020905b815481529060010190602001808311610ab957829003601f168201915b5050505060078301805460408051602060026001851615610100026000190190941693909304601f8101849004840282018401909252818152949e50919250830182828015610b665780601f10610b3b57610100808354040283529160200191610b66565b820191906000526020600020905b815481529060010190602001808311610b4957829003601f168201915b5050505060088301805460408051602060026001851615610100026000190190941693909304601f8101849004840282018401909252818152949950919250830182828015610bf65780601f10610bcb57610100808354040283529160200191610bf6565b820191906000526020600020905b815481529060010190602001808311610bd957829003601f168201915b505050506009830154600a8401805460408051602060026101006001861615026000190190941693909304601f81018490048402820184019092528181529599506001600160a01b039093169750909250830182828015610c985780601f10610c6d57610100808354040283529160200191610c98565b820191906000526020600020905b815481529060010190602001808311610c7b57829003601f168201915b505050505091505091939597999b90929496989a50565b6106d0838383604051806020016040528060008152506111f9565b600080610cd8600384611afb565b509392505050565b6000610735826040518060600160405280602981526020016130216029913960039190611b17565b600a8054604080516020601f60026000196101006001881615020190951694909404938401819004810282018101909252828152606093909290918301828280156105e75780601f106105bc576101008083540402835291602001916105e7565b610d716118df565b6001600160a01b0316610d826110b5565b6001600160a01b031614610da85760405162461bcd60e51b815260040161061890612cda565b600b80546001600160a01b0319166001600160a01b0392909216919091179055565b60006001600160a01b038216610df25760405162461bcd60e51b815260040161061890612b40565b6001600160a01b038216600090815260026020526040902061073590611951565b610e1b6118df565b6001600160a01b0316610e2c6110b5565b6001600160a01b031614610e525760405162461bcd60e51b815260040161061890612cda565b600080546040516001600160a01b03909116907f8be0079c531659141344cd1fd0a4f28419497f9722a3daafe3b4186f6b6457e0908390a3600080546001600160a01b0319169055565b600080610ea7611b24565b90503481811015610eca5760405162461bcd60e51b815260040161061890612a65565b600e54610ed5612366565b50604080516101608101825282815260208082018f81529282018e9052606082018d9052608082018c905260a082018b90524260c083015260e082018a90526101008201899052336101208301526101408201889052600e805460018101825560009190915282517fbb7b4a454dc3493923482f07822329ed19e8244eff582cc204f8554c3620c3fd600b90920291820190815593518051939485949093610fa1937fbb7b4a454dc3493923482f07822329ed19e8244eff582cc204f8554c3620c3fe019201906123c9565b5060408201518051610fbd9160028401916020909101906123c9565b5060608201518051610fd99160038401916020909101906123c9565b5060808201518051610ff59160048401916020909101906123c9565b5060a0820151600582015560c0820151600682015560e082015180516110259160078401916020909101906123c9565b5061010082015180516110429160088401916020909101906123c9565b506101208201516009820180546001600160a01b0319166001600160a01b03909216919091179055610140820151805161108691600a8401916020909101906123c9565b5050506110933383611bc4565b61109d828b611be2565b6110a5611c26565b509b9a5050505050505050505050565b6000546001600160a01b031690565b600c5481565b60088054604080516020601f60026000196101006001881615020190951694909404938401819004810282018101909252828152606093909290918301828280156105e75780601f106105bc576101008083540402835291602001916105e7565b6111336118df565b6001600160a01b0316826001600160a01b031614156111645760405162461bcd60e51b815260040161061890612a32565b80600660006111716118df565b6001600160a01b03908116825260208083019390935260409182016000908120918716808252919093529120805460ff1916921515929092179091556111b56118df565b6001600160a01b03167f17307eab39ab6107e8899845ad3d59bd9653f200f220920489ca2b5937696c31836040516111ed91906128bf565b60405180910390a35050565b61120a6112046118df565b8361195c565b6112265760405162461bcd60e51b815260040161061890612e1f565b61123284848484611c62565b50505050565b600e818154811061124557fe5b90600052602060002090600b0201600091509050806000015490806001018054600181600116156101000203166002900480601f0160208091040260200160405190810160405280929190818152602001828054600181600116156101000203166002900480156112f75780601f106112cc576101008083540402835291602001916112f7565b820191906000526020600020905b8154815290600101906020018083116112da57829003601f168201915b50505060028085018054604080516020601f60001961010060018716150201909416959095049283018590048502810185019091528181529596959450909250908301828280156113895780601f1061135e57610100808354040283529160200191611389565b820191906000526020600020905b81548152906001019060200180831161136c57829003601f168201915b5050505060038301805460408051602060026001851615610100026000190190941693909304601f81018490048402820184019092528181529495949350908301828280156114195780601f106113ee57610100808354040283529160200191611419565b820191906000526020600020905b8154815290600101906020018083116113fc57829003601f168201915b5050505060048301805460408051602060026001851615610100026000190190941693909304601f81018490048402820184019092528181529495949350908301828280156114a95780601f1061147e576101008083540402835291602001916114a9565b820191906000526020600020905b81548152906001019060200180831161148c57829003601f168201915b505050505090806005015490806006015490806007018054600181600116156101000203166002900480601f0160208091040260200160405190810160405280929190818152602001828054600181600116156101000203166002900480156115535780601f1061152857610100808354040283529160200191611553565b820191906000526020600020905b81548152906001019060200180831161153657829003601f168201915b5050505060088301805460408051602060026001851615610100026000190190941693909304601f81018490048402820184019092528181529495949350908301828280156115e35780601f106115b8576101008083540402835291602001916115e3565b820191906000526020600020905b8154815290600101906020018083116115c657829003601f168201915b505050506009830154600a8401805460408051602060026101006001861615026000190190941693909304601f810184900484028201840190925281815295966001600160a01b0390941695939450908301828280156116845780601f1061165957610100808354040283529160200191611684565b820191906000526020600020905b81548152906001019060200180831161166757829003601f168201915b505050505090508b565b6060611699826118d2565b6116b55760405162461bcd60e51b815260040161061890612d58565b60008281526009602090815260409182902080548351601f600260001961010060018616150201909316929092049182018490048402810184019094528084526060939283018282801561174a5780601f1061171f5761010080835404028352916020019161174a565b820191906000526020600020905b81548152906001019060200180831161172d57829003601f168201915b50505050509050606061175b610d08565b905080516000141561176f57509050610556565b8151156117a157808260405160200161178992919061283f565b60405160208183030381529060405292505050610556565b806117ab85611c95565b6040516020016117bc92919061283f565b60405160208183030381529060405292505050919050565b6000610725611b24565b600e5490565b6001600160a01b03918216600090815260066020908152604080832093909416825291909152205460ff1690565b61181a6118df565b6001600160a01b031661182b6110b5565b6001600160a01b0316146118515760405162461bcd60e51b815260040161061890612cda565b6001600160a01b0381166118775760405162461bcd60e51b815260040161061890612971565b600080546040516001600160a01b03808516939216917f8be0079c531659141344cd1fd0a4f28419497f9722a3daafe3b4186f6b6457e091a3600080546001600160a01b0319166001600160a01b0392909216919091179055565b6000610735600383611d70565b3390565b600081815260056020526040902080546001600160a01b0319166001600160a01b038416908117909155819061191882610ce0565b6001600160a01b03167f8c5be1e5ebec7d5bd14f71427d1e84f3dd0314c0f7b2291e5b200ac8c7c3b92560405160405180910390a45050565b600061073582611d7c565b6000611967826118d2565b6119835760405162461bcd60e51b815260040161061890612a9c565b600061198e83610ce0565b9050806001600160a01b0316846001600160a01b031614806119c95750836001600160a01b03166119be846105f1565b6001600160a01b0316145b806119d957506119d981856117e4565b949350505050565b826001600160a01b03166119f482610ce0565b6001600160a01b031614611a1a5760405162461bcd60e51b815260040161061890612d0f565b6001600160a01b038216611a405760405162461bcd60e51b8152600401610618906129ee565b611a4b8383836106d0565b611a566000826118e3565b6001600160a01b0383166000908152600260205260409020611a789082611d80565b506001600160a01b0382166000908152600260205260409020611a9b9082611d8c565b50611aa860038284611d98565b5080826001600160a01b0316846001600160a01b03167fddf252ad1be2c89b69c2b068fc378daa952ba7f163c4a11628f55a4df523b3ef60405160405180910390a4505050565b60006107a48383611dae565b6000808080611b0a8686611df3565b9097909650945050505050565b60006119d9848484611e4f565b6000611b2e612447565b600d5460405163195556f360e21b81526001600160a01b03909116906365555bcc90611b5c90600401612de8565b60606040518083038186803b158015611b7457600080fd5b505afa158015611b88573d6000803e3d6000fd5b505050506040513d601f19601f82011682018060405250810190611bac9190612795565b600c548151919250611bbe9190611eae565b91505090565b611bde828260405180602001604052806000815250611ee8565b5050565b611beb826118d2565b611c075760405162461bcd60e51b815260040161061890612c8e565b600082815260096020908152604090912082516106d0928401906123c9565b600b546040516001600160a01b03909116904780156108fc02916000818181858888f19350505050158015611c5f573d6000803e3d6000fd5b50565b611c6d8484846119e1565b611c7984848484611f1b565b6112325760405162461bcd60e51b81526004016106189061291f565b606081611cba57506040805180820190915260018152600360fc1b6020820152610556565b8160005b8115611cd257600101600a82049150611cbe565b60608167ffffffffffffffff81118015611ceb57600080fd5b506040519080825280601f01601f191660200182016040528015611d16576020820181803683370190505b50859350905060001982015b8315611d6757600a840660300160f81b82828060019003935081518110611d4557fe5b60200101906001600160f81b031916908160001a905350600a84049350611d22565b50949350505050565b60006107a48383611ffa565b5490565b60006107a48383612012565b60006107a483836120d8565b60006119d984846001600160a01b038516612122565b81546000908210611dd15760405162461bcd60e51b8152600401610618906128dd565b826000018281548110611de057fe5b9060005260206000200154905092915050565b815460009081908310611e185760405162461bcd60e51b815260040161061890612b8a565b6000846000018481548110611e2957fe5b906000526020600020906002020190508060000154816001015492509250509250929050565b60008281526001840160205260408120548281611e7f5760405162461bcd60e51b815260040161061891906128ca565b50846000016001820381548110611e9257fe5b9060005260206000209060020201600101549150509392505050565b600082611ebd57506000610735565b82820282848281611eca57fe5b04146107a45760405162461bcd60e51b815260040161061890612c01565b611ef283836121b9565b611eff6000848484611f1b565b6106d05760405162461bcd60e51b81526004016106189061291f565b6000611f2f846001600160a01b031661227d565b611f3b575060016119d9565b6060611fc3630a85bd0160e11b611f506118df565b888787604051602401611f669493929190612882565b604051602081830303815290604052906001600160e01b0319166020820180516001600160e01b038381831617835250505050604051806060016040528060328152602001612fef603291396001600160a01b0388169190612283565b9050600081806020019051810190611fdb919061265c565b6001600160e01b031916630a85bd0160e11b1492505050949350505050565b60009081526001919091016020526040902054151590565b600081815260018301602052604081205480156120ce578354600019808301919081019060009087908390811061204557fe5b906000526020600020015490508087600001848154811061206257fe5b60009182526020808320909101929092558281526001898101909252604090209084019055865487908061209257fe5b60019003818190600052602060002001600090559055866001016000878152602001908152602001600020600090556001945050505050610735565b6000915050610735565b60006120e48383611ffa565b61211a57508154600181810184556000848152602080822090930184905584548482528286019093526040902091909155610735565b506000610735565b6000828152600184016020526040812054806121875750506040805180820182528381526020808201848152865460018181018955600089815284812095516002909302909501918255915190820155865486845281880190925292909120556107a4565b8285600001600183038154811061219a57fe5b90600052602060002090600202016001018190555060009150506107a4565b6001600160a01b0382166121df5760405162461bcd60e51b815260040161061890612bcc565b6121e8816118d2565b156122055760405162461bcd60e51b8152600401610618906129b7565b612211600083836106d0565b6001600160a01b03821660009081526002602052604090206122339082611d8c565b5061224060038284611d98565b5060405181906001600160a01b038416906000907fddf252ad1be2c89b69c2b068fc378daa952ba7f163c4a11628f55a4df523b3ef908290a45050565b3b151590565b60606119d98484600085856122978561227d565b6122b35760405162461bcd60e51b815260040161061890612e70565b60006060866001600160a01b031685876040516122d09190612823565b60006040518083038185875af1925050503d806000811461230d576040519150601f19603f3d011682016040523d82523d6000602084013e612312565b606091505b509150915061232282828661232d565b979650505050505050565b6060831561233c5750816107a4565b82511561234c5782518084602001fd5b8160405162461bcd60e51b815260040161061891906128ca565b60405180610160016040528060008152602001606081526020016060815260200160608152602001606081526020016000815260200160008152602001606081526020016060815260200160006001600160a01b03168152602001606081525090565b828054600181600116156101000203166002900490600052602060002090601f016020900481019282601f1061240a57805160ff1916838001178555612437565b82800160010185558215612437579182015b8281111561243757825182559160200191906001019061241c565b50612443929150612468565b5090565b60405180606001604052806000815260200160008152602001600081525090565b5b808211156124435760008155600101612469565b600082601f83011261248d578081fd5b813567ffffffffffffffff8111156124a3578182fd5b6124b6601f8201601f1916602001612f70565b91508082528360208285010111156124cd57600080fd5b8060208401602084013760009082016020015292915050565b6000602082840312156124f7578081fd5b81356107a481612fc3565b60008060408385031215612514578081fd5b823561251f81612fc3565b9150602083013561252f81612fc3565b809150509250929050565b60008060006060848603121561254e578081fd5b833561255981612fc3565b9250602084013561256981612fc3565b929592945050506040919091013590565b6000806000806080858703121561258f578081fd5b843561259a81612fc3565b935060208501356125aa81612fc3565b925060408501359150606085013567ffffffffffffffff8111156125cc578182fd5b6125d88782880161247d565b91505092959194509250565b600080604083850312156125f6578182fd5b823561260181612fc3565b91506020830135801515811461252f578182fd5b60008060408385031215612627578182fd5b823561263281612fc3565b946020939093013593505050565b600060208284031215612651578081fd5b81356107a481612fd8565b60006020828403121561266d578081fd5b81516107a481612fd8565b600080600080600080600080610100898b031215612694578384fd5b883567ffffffffffffffff808211156126ab578586fd5b6126b78c838d0161247d565b995060208b01359150808211156126cc578586fd5b6126d88c838d0161247d565b985060408b01359150808211156126ed578586fd5b6126f98c838d0161247d565b975060608b013591508082111561270e578586fd5b61271a8c838d0161247d565b965060808b0135955060a08b0135915080821115612736578485fd5b6127428c838d0161247d565b945060c08b0135915080821115612757578384fd5b6127638c838d0161247d565b935060e08b0135915080821115612778578283fd5b506127858b828c0161247d565b9150509295985092959890939650565b6000606082840312156127a6578081fd5b6127b06060612f70565b8251815260208301516020820152604083015160408201528091505092915050565b6000602082840312156127e3578081fd5b5035919050565b6001600160a01b03169052565b6000815180845261280f816020860160208601612f97565b601f01601f19169290920160200192915050565b60008251612835818460208701612f97565b9190910192915050565b60008351612851818460208801612f97565b835190830190612865818360208801612f97565b01949350505050565b6001600160a01b0391909116815260200190565b6001600160a01b03858116825284166020820152604081018390526080606082018190526000906128b5908301846127f7565b9695505050505050565b901515815260200190565b6000602082526107a460208301846127f7565b60208082526022908201527f456e756d657261626c655365743a20696e646578206f7574206f6620626f756e604082015261647360f01b606082015260800190565b60208082526032908201527f4552433732313a207472616e7366657220746f206e6f6e20455243373231526560408201527131b2b4bb32b91034b6b83632b6b2b73a32b960711b606082015260800190565b60208082526026908201527f4f776e61626c653a206e6577206f776e657220697320746865207a65726f206160408201526564647265737360d01b606082015260800190565b6020808252601c908201527f4552433732313a20746f6b656e20616c7265616479206d696e74656400000000604082015260600190565b60208082526024908201527f4552433732313a207472616e7366657220746f20746865207a65726f206164646040820152637265737360e01b606082015260800190565b60208082526019908201527822a9219b99189d1030b8383937bb32903a379031b0b63632b960391b604082015260600190565b6020808252601d908201527f6d73672e73656e64657220646964206e6f742070617920656e6f756768000000604082015260600190565b6020808252602c908201527f4552433732313a206f70657261746f7220717565727920666f72206e6f6e657860408201526b34b9ba32b73a103a37b5b2b760a11b606082015260800190565b60208082526038908201527f4552433732313a20617070726f76652063616c6c6572206973206e6f74206f776040820152771b995c881b9bdc88185c1c1c9bdd995908199bdc88185b1b60421b606082015260800190565b6020808252602a908201527f4552433732313a2062616c616e636520717565727920666f7220746865207a65604082015269726f206164647265737360b01b606082015260800190565b60208082526022908201527f456e756d657261626c654d61703a20696e646578206f7574206f6620626f756e604082015261647360f01b606082015260800190565b6020808252818101527f4552433732313a206d696e7420746f20746865207a65726f2061646472657373604082015260600190565b60208082526021908201527f536166654d6174683a206d756c7469706c69636174696f6e206f766572666c6f6040820152607760f81b606082015260800190565b6020808252602c908201527f4552433732313a20617070726f76656420717565727920666f72206e6f6e657860408201526b34b9ba32b73a103a37b5b2b760a11b606082015260800190565b6020808252602c908201527f4552433732314d657461646174613a2055524920736574206f66206e6f6e657860408201526b34b9ba32b73a103a37b5b2b760a11b606082015260800190565b6020808252818101527f4f776e61626c653a2063616c6c6572206973206e6f7420746865206f776e6572604082015260600190565b60208082526029908201527f4552433732313a207472616e73666572206f6620746f6b656e2074686174206960408201526839903737ba1037bbb760b91b606082015260800190565b6020808252602f908201527f4552433732314d657461646174613a2055524920717565727920666f72206e6f60408201526e3732bc34b9ba32b73a103a37b5b2b760891b606082015260800190565b60208082526021908201527f4552433732313a20617070726f76616c20746f2063757272656e74206f776e656040820152603960f91b606082015260800190565b60408082526003908201819052621554d160ea1b60608301526080602083018190528201526208aa8960eb1b60a082015260c00190565b60208082526031908201527f4552433732313a207472616e736665722063616c6c6572206973206e6f74206f6040820152701ddb995c881b9bdc88185c1c1c9bdd9959607a1b606082015260800190565b6020808252601d908201527f416464726573733a2063616c6c20746f206e6f6e2d636f6e7472616374000000604082015260600190565b90815260200190565b60006101608d8352806020840152612eca8184018e6127f7565b90508281036040840152612ede818d6127f7565b90508281036060840152612ef2818c6127f7565b90508281036080840152612f06818b6127f7565b90508860a08401528760c084015282810360e0840152612f2681886127f7565b9050828103610100840152612f3b81876127f7565b9050612f4b6101208401866127ea565b828103610140840152612f5e81856127f7565b9e9d5050505050505050505050505050565b60405181810167ffffffffffffffff81118282101715612f8f57600080fd5b604052919050565b60005b83811015612fb2578181015183820152602001612f9a565b838111156112325750506000910152565b6001600160a01b0381168114611c5f57600080fd5b6001600160e01b031981168114611c5f57600080fdfe4552433732313a207472616e7366657220746f206e6f6e20455243373231526563656976657220696d706c656d656e7465724552433732313a206f776e657220717565727920666f72206e6f6e6578697374656e7420746f6b656ea2646970667358221220c3f2105d1ec350169d53657e5d94b79922a41cad7751e647cda5ee0dd046f8cd64736f6c63430007000033",
  "immutableReferences": {},
  "source": "pragma solidity 0.7.0; \npragma experimental ABIEncoderV2;\n\nimport \"@openzeppelin/contracts/math/SafeMath.sol\";\nimport \"@openzeppelin/contracts/access/Ownable.sol\";\nimport \"@openzeppelin/contracts/token/ERC721/ERC721.sol\";\n\ninterface IStdReference {\n    /// A structure returned whenever someone requests for standard reference data.\n    struct ReferenceData {\n        uint256 rate; // base/quote exchange rate, multiplied by 1e18.\n        uint256 lastUpdatedBase; // UNIX epoch of the last time when base price gets updated.\n        uint256 lastUpdatedQuote; // UNIX epoch of the last time when quote price gets updated.\n    }\n\n    /// Returns the price data for the given base/quote pair. Revert if not available.\n    function getReferenceData(string memory _base, string memory _quote)\n        external\n        view\n        returns (ReferenceData memory);\n\n    /// Similar to getReferenceData, but with multiple base/quote pairs at once.\n    function getReferenceDataBulk(string[] memory _bases, string[] memory _quotes)\n        external\n        view\n        returns (ReferenceData[] memory);\n}\n\n\n\ncontract GeneratorBase is Ownable, ERC721(\"Generator.pink\",\"GENERATOR\") {\n\n    /* ========== Structs and contracts variables ========== */\n    using SafeMath for uint256;\n    // The address the recives all the fees from the contract\n    address payable public feeReciver; \n    // The fee amount denominated in USD amount Ex. 1 USD = 1* 10^18;\n    uint256 public USD_FEE; \n\n    // The oracle refferance address\n    IStdReference ref;\n\n   \n    struct Document {\n        uint256 id;\n\n        string uuid;\n\n        // Token Title\n        string title;\n        // Description of connected file\n        string description;\n        // Link to document\n        string uri; \n        // Validity Date\n        uint validationDate; \n        // Mint timestamp.\n        uint timestamp; \n\n        string email; \n\n        string website; \n\n        address minter; \n\n        string ipaddress; \n    }\n\n    Document[] public documents;\n\n    /* ========== CONSTRUCTOR ========== */\n\n    /**\n     * @dev \n     * @param _fee the base fee nominated in USD only NO DECIMAL NUMBERS ACCEPTED.\n     * @param _reciver This is the address where all the fee's will be sent to. \n     */\n    constructor (\n        uint256 _fee,\n        address payable _reciver,\n        IStdReference _ref\n    ) {\n        USD_FEE = _fee;\n        feeReciver = _reciver;\n        ref = _ref;\n    }\n\n    /* ========== EXTERNAL MUTABLE FUNCTIONS ========== */\n    \n    /**\n     * @dev  Add a document\n     * @param _title Title of the document.\n     * @param _description Short Description. \n     * @param _uri The URI. \n     * @param _validationDate Validation Date of document.\n     * @param _email Email address of the creator\n     * @param _website Website of creator.\n     */\n    function addDocument (\n        string memory _uuid,\n        string memory _title,\n        string memory _description, \n        string memory _uri, \n        uint256 _validationDate,\n        string memory _email, \n        string memory _website,\n        string memory _ipaddress\n    ) public payable returns(uint256) {\n        // handle the payment for the minting proccess.\n\n            // save the current price \n            uint256 amountToPay = get_FEE_IN_ETH();\n            uint256 amountPayed = msg.value;\n\n            // require that the caller has send enough to the contract\n            require(amountPayed >= amountToPay, 'msg.sender did not pay enough');\n\n\n        // handle the minting of the new token.\n\n        // Grab the ID of the document to make. \n        uint256 newid = documents.length; \n        // Assemble the struct. \n        Document memory newDoc = Document({\n            id: newid,\n            uuid: _uuid,\n            title: _title,\n            description: _description,\n            uri: _uri,\n            validationDate: _validationDate,\n            timestamp: block.timestamp,\n            email: _email,\n            website: _website,\n            minter: msg.sender,\n            ipaddress: _ipaddress\n        });\n        // Push it to the array \n        documents.push(newDoc); \n\n        // mint the token to this address\n        _safeMint(msg.sender, newid);\n\n        _setTokenURI(newid, _uri);\n\n        payReciver();\n\n        return  newid; \n    }\n\n    /** \n     * @dev sets a new reciver for the fee. \n     * @param newReciver .\n     */\n    function setNewRevicer(address payable newReciver) external onlyOwner {\n        feeReciver = newReciver;\n\n    }\n\n     /** \n     * @dev sets a new fee amount in USD. Ex. 1 USD. NOT 0.1 USD NO DECIMALS POSSIBLE\n     * @param newFee .\n     */\n    function setNewFeeInUSD(uint256 newFee) external onlyOwner {\n        USD_FEE = newFee;\n\n    }\n\n    /* ========== VIEW FUNCTIONS ========== */\n    /**\n     * @dev  Get the info from the document. \n     * @param documentId the ID of the document you want to retrive info from.\n     */\n    function getDocument(uint256 documentId) \n        external\n        view\n        returns (\n            uint256 id,\n            string memory uuid, \n            string memory title, \n            string memory description, \n            string memory uri, \n            uint256 validationDate,\n            uint256 timestamp, \n            string memory email, \n            string memory website,\n            address minter,\n            string memory ipaddress\n        )\n    {\n        Document storage doc = documents[documentId];\n        id = documentId; \n        uuid = doc.uuid;\n        title = doc.title; \n        description = doc.description; \n        uri = doc.uri;\n        validationDate = doc.validationDate;\n        timestamp = doc.timestamp;\n        title = doc.title;\n        email = doc.email;\n        website = doc.website;\n        minter = doc.minter;\n        ipaddress = doc.ipaddress;\n    }\n\n    function getTotalDocuments () public view returns (uint256) {\n        return documents.length;\n    }\n    \n    function getCurrentPriceInEth() public view returns (uint256) {\n        return get_FEE_IN_ETH();\n    }\n\n    function getURI(uint256 documentId) external view returns (string memory uri) {\n        uri = tokenURI(documentId);\n    }\n    \n    /* ========== INTERNAL FUNCTIONS ========== */\n\n    /**\n     * @dev  Function to return the price of 1 USD in ETH. Then multiplied by the USD_FEE to get the correct ETH value. Using BAND oracle contract for this. \n     */\n\n    function get_FEE_IN_ETH() internal view returns(uint256){\n        IStdReference.ReferenceData memory data = ref.getReferenceData('USD', 'ETH');\n        return data.rate.mul(USD_FEE);\n    }\n\n    function payReciver() internal {\n        feeReciver.transfer(address(this).balance);\n    }\n\n    /* ====== MODIFIERS ====== */\n\n     \n\n    /* ====== FALLBACK ====== */\n\n    receive() external payable {}\n   \n}",
  "sourcePath": "/Users/lexcalebout/Desktop/Dev-Projects/generator/packages/contracts/contracts/GeneratorBase.sol",
  "compiler": {
    "name": "solc",
    "version": "0.7.0+commit.9e61f92b.Emscripten.clang"
  },
  "schemaVersion": "3.3.4",
  "updatedAt": "2021-04-26T17:32:18.184Z",
  "networkType": "ethereum",
  "devdoc": {
    "kind": "dev",
    "methods": {
      "addDocument(string,string,string,string,uint256,string,string,string)": {
        "details": "Add a document",
        "params": {
          "_description": "Short Description. ",
          "_email": "Email address of the creator",
          "_title": "Title of the document.",
          "_uri": "The URI. ",
          "_validationDate": "Validation Date of document.",
          "_website": "Website of creator."
        }
      },
      "approve(address,uint256)": {
        "details": "See {IERC721-approve}."
      },
      "balanceOf(address)": {
        "details": "See {IERC721-balanceOf}."
      },
      "baseURI()": {
        "details": "Returns the base URI set via {_setBaseURI}. This will be automatically added as a prefix in {tokenURI} to each token's URI, or to the token ID if no specific URI is set for that token ID."
      },
      "constructor": {
        "params": {
          "_fee": "the base fee nominated in USD only NO DECIMAL NUMBERS ACCEPTED.",
          "_reciver": "This is the address where all the fee's will be sent to. "
        }
      },
      "getApproved(uint256)": {
        "details": "See {IERC721-getApproved}."
      },
      "getDocument(uint256)": {
        "details": "Get the info from the document. ",
        "params": {
          "documentId": "the ID of the document you want to retrive info from."
        }
      },
      "isApprovedForAll(address,address)": {
        "details": "See {IERC721-isApprovedForAll}."
      },
      "name()": {
        "details": "See {IERC721Metadata-name}."
      },
      "owner()": {
        "details": "Returns the address of the current owner."
      },
      "ownerOf(uint256)": {
        "details": "See {IERC721-ownerOf}."
      },
      "renounceOwnership()": {
        "details": "Leaves the contract without owner. It will not be possible to call `onlyOwner` functions anymore. Can only be called by the current owner. NOTE: Renouncing ownership will leave the contract without an owner, thereby removing any functionality that is only available to the owner."
      },
      "safeTransferFrom(address,address,uint256)": {
        "details": "See {IERC721-safeTransferFrom}."
      },
      "safeTransferFrom(address,address,uint256,bytes)": {
        "details": "See {IERC721-safeTransferFrom}."
      },
      "setApprovalForAll(address,bool)": {
        "details": "See {IERC721-setApprovalForAll}."
      },
      "setNewFeeInUSD(uint256)": {
        "details": "sets a new fee amount in USD. Ex. 1 USD. NOT 0.1 USD NO DECIMALS POSSIBLE",
        "params": {
          "newFee": "."
        }
      },
      "setNewRevicer(address)": {
        "details": "sets a new reciver for the fee. ",
        "params": {
          "newReciver": "."
        }
      },
      "supportsInterface(bytes4)": {
        "details": "See {IERC165-supportsInterface}. Time complexity O(1), guaranteed to always use less than 30 000 gas."
      },
      "symbol()": {
        "details": "See {IERC721Metadata-symbol}."
      },
      "tokenByIndex(uint256)": {
        "details": "See {IERC721Enumerable-tokenByIndex}."
      },
      "tokenOfOwnerByIndex(address,uint256)": {
        "details": "See {IERC721Enumerable-tokenOfOwnerByIndex}."
      },
      "tokenURI(uint256)": {
        "details": "See {IERC721Metadata-tokenURI}."
      },
      "totalSupply()": {
        "details": "See {IERC721Enumerable-totalSupply}."
      },
      "transferFrom(address,address,uint256)": {
        "details": "See {IERC721-transferFrom}."
      },
      "transferOwnership(address)": {
        "details": "Transfers ownership of the contract to a new account (`newOwner`). Can only be called by the current owner."
      }
    },
    "version": 1
  },
  "userdoc": {
    "kind": "user",
    "methods": {},
    "version": 1
  }
}