{
  "contractName": "GeneratorBase",
  "abi": [
    {
      "inputs": [
        {
          "internalType": "uint256",
          "name": "_fee",
          "type": "uint256"
        },
        {
          "internalType": "address payable",
          "name": "_reciver",
          "type": "address"
        },
        {
          "internalType": "contract IStdReference",
          "name": "_ref",
          "type": "address"
        }
      ],
      "stateMutability": "nonpayable",
      "type": "constructor"
    },
    {
      "anonymous": false,
      "inputs": [
        {
          "indexed": true,
          "internalType": "address",
          "name": "owner",
          "type": "address"
        },
        {
          "indexed": true,
          "internalType": "address",
          "name": "approved",
          "type": "address"
        },
        {
          "indexed": true,
          "internalType": "uint256",
          "name": "tokenId",
          "type": "uint256"
        }
      ],
      "name": "Approval",
      "type": "event"
    },
    {
      "anonymous": false,
      "inputs": [
        {
          "indexed": true,
          "internalType": "address",
          "name": "owner",
          "type": "address"
        },
        {
          "indexed": true,
          "internalType": "address",
          "name": "operator",
          "type": "address"
        },
        {
          "indexed": false,
          "internalType": "bool",
          "name": "approved",
          "type": "bool"
        }
      ],
      "name": "ApprovalForAll",
      "type": "event"
    },
    {
      "anonymous": false,
      "inputs": [
        {
          "indexed": true,
          "internalType": "address",
          "name": "previousOwner",
          "type": "address"
        },
        {
          "indexed": true,
          "internalType": "address",
          "name": "newOwner",
          "type": "address"
        }
      ],
      "name": "OwnershipTransferred",
      "type": "event"
    },
    {
      "anonymous": false,
      "inputs": [
        {
          "indexed": true,
          "internalType": "address",
          "name": "from",
          "type": "address"
        },
        {
          "indexed": true,
          "internalType": "address",
          "name": "to",
          "type": "address"
        },
        {
          "indexed": true,
          "internalType": "uint256",
          "name": "tokenId",
          "type": "uint256"
        }
      ],
      "name": "Transfer",
      "type": "event"
    },
    {
      "inputs": [],
      "name": "USD_FEE",
      "outputs": [
        {
          "internalType": "uint256",
          "name": "",
          "type": "uint256"
        }
      ],
      "stateMutability": "view",
      "type": "function",
      "constant": true
    },
    {
      "inputs": [
        {
          "internalType": "address",
          "name": "to",
          "type": "address"
        },
        {
          "internalType": "uint256",
          "name": "tokenId",
          "type": "uint256"
        }
      ],
      "name": "approve",
      "outputs": [],
      "stateMutability": "nonpayable",
      "type": "function"
    },
    {
      "inputs": [
        {
          "internalType": "address",
          "name": "owner",
          "type": "address"
        }
      ],
      "name": "balanceOf",
      "outputs": [
        {
          "internalType": "uint256",
          "name": "",
          "type": "uint256"
        }
      ],
      "stateMutability": "view",
      "type": "function",
      "constant": true
    },
    {
      "inputs": [],
      "name": "baseURI",
      "outputs": [
        {
          "internalType": "string",
          "name": "",
          "type": "string"
        }
      ],
      "stateMutability": "view",
      "type": "function",
      "constant": true
    },
    {
      "inputs": [
        {
          "internalType": "uint256",
          "name": "",
          "type": "uint256"
        }
      ],
      "name": "documents",
      "outputs": [
        {
          "internalType": "uint256",
          "name": "id",
          "type": "uint256"
        },
        {
          "internalType": "string",
          "name": "uuid",
          "type": "string"
        },
        {
          "internalType": "string",
          "name": "title",
          "type": "string"
        },
        {
          "internalType": "string",
          "name": "description",
          "type": "string"
        },
        {
          "internalType": "string",
          "name": "uri",
          "type": "string"
        },
        {
          "internalType": "uint256",
          "name": "validationDate",
          "type": "uint256"
        },
        {
          "internalType": "uint256",
          "name": "timestamp",
          "type": "uint256"
        },
        {
          "internalType": "string",
          "name": "name",
          "type": "string"
        },
        {
          "internalType": "string",
          "name": "fulladdress",
          "type": "string"
        },
        {
          "internalType": "string",
          "name": "email",
          "type": "string"
        },
        {
          "internalType": "string",
          "name": "website",
          "type": "string"
        },
        {
          "internalType": "address",
          "name": "minter",
          "type": "address"
        },
        {
          "internalType": "string",
          "name": "ipaddress",
          "type": "string"
        }
      ],
      "stateMutability": "view",
      "type": "function",
      "constant": true
    },
    {
      "inputs": [],
      "name": "feeReciver",
      "outputs": [
        {
          "internalType": "address payable",
          "name": "",
          "type": "address"
        }
      ],
      "stateMutability": "view",
      "type": "function",
      "constant": true
    },
    {
      "inputs": [
        {
          "internalType": "uint256",
          "name": "tokenId",
          "type": "uint256"
        }
      ],
      "name": "getApproved",
      "outputs": [
        {
          "internalType": "address",
          "name": "",
          "type": "address"
        }
      ],
      "stateMutability": "view",
      "type": "function",
      "constant": true
    },
    {
      "inputs": [
        {
          "internalType": "address",
          "name": "owner",
          "type": "address"
        },
        {
          "internalType": "address",
          "name": "operator",
          "type": "address"
        }
      ],
      "name": "isApprovedForAll",
      "outputs": [
        {
          "internalType": "bool",
          "name": "",
          "type": "bool"
        }
      ],
      "stateMutability": "view",
      "type": "function",
      "constant": true
    },
    {
      "inputs": [],
      "name": "name",
      "outputs": [
        {
          "internalType": "string",
          "name": "",
          "type": "string"
        }
      ],
      "stateMutability": "view",
      "type": "function",
      "constant": true
    },
    {
      "inputs": [],
      "name": "owner",
      "outputs": [
        {
          "internalType": "address",
          "name": "",
          "type": "address"
        }
      ],
      "stateMutability": "view",
      "type": "function",
      "constant": true
    },
    {
      "inputs": [
        {
          "internalType": "uint256",
          "name": "tokenId",
          "type": "uint256"
        }
      ],
      "name": "ownerOf",
      "outputs": [
        {
          "internalType": "address",
          "name": "",
          "type": "address"
        }
      ],
      "stateMutability": "view",
      "type": "function",
      "constant": true
    },
    {
      "inputs": [],
      "name": "renounceOwnership",
      "outputs": [],
      "stateMutability": "nonpayable",
      "type": "function"
    },
    {
      "inputs": [
        {
          "internalType": "address",
          "name": "from",
          "type": "address"
        },
        {
          "internalType": "address",
          "name": "to",
          "type": "address"
        },
        {
          "internalType": "uint256",
          "name": "tokenId",
          "type": "uint256"
        }
      ],
      "name": "safeTransferFrom",
      "outputs": [],
      "stateMutability": "nonpayable",
      "type": "function"
    },
    {
      "inputs": [
        {
          "internalType": "address",
          "name": "from",
          "type": "address"
        },
        {
          "internalType": "address",
          "name": "to",
          "type": "address"
        },
        {
          "internalType": "uint256",
          "name": "tokenId",
          "type": "uint256"
        },
        {
          "internalType": "bytes",
          "name": "_data",
          "type": "bytes"
        }
      ],
      "name": "safeTransferFrom",
      "outputs": [],
      "stateMutability": "nonpayable",
      "type": "function"
    },
    {
      "inputs": [
        {
          "internalType": "address",
          "name": "operator",
          "type": "address"
        },
        {
          "internalType": "bool",
          "name": "approved",
          "type": "bool"
        }
      ],
      "name": "setApprovalForAll",
      "outputs": [],
      "stateMutability": "nonpayable",
      "type": "function"
    },
    {
      "inputs": [
        {
          "internalType": "bytes4",
          "name": "interfaceId",
          "type": "bytes4"
        }
      ],
      "name": "supportsInterface",
      "outputs": [
        {
          "internalType": "bool",
          "name": "",
          "type": "bool"
        }
      ],
      "stateMutability": "view",
      "type": "function",
      "constant": true
    },
    {
      "inputs": [],
      "name": "symbol",
      "outputs": [
        {
          "internalType": "string",
          "name": "",
          "type": "string"
        }
      ],
      "stateMutability": "view",
      "type": "function",
      "constant": true
    },
    {
      "inputs": [
        {
          "internalType": "uint256",
          "name": "index",
          "type": "uint256"
        }
      ],
      "name": "tokenByIndex",
      "outputs": [
        {
          "internalType": "uint256",
          "name": "",
          "type": "uint256"
        }
      ],
      "stateMutability": "view",
      "type": "function",
      "constant": true
    },
    {
      "inputs": [
        {
          "internalType": "address",
          "name": "owner",
          "type": "address"
        },
        {
          "internalType": "uint256",
          "name": "index",
          "type": "uint256"
        }
      ],
      "name": "tokenOfOwnerByIndex",
      "outputs": [
        {
          "internalType": "uint256",
          "name": "",
          "type": "uint256"
        }
      ],
      "stateMutability": "view",
      "type": "function",
      "constant": true
    },
    {
      "inputs": [
        {
          "internalType": "uint256",
          "name": "tokenId",
          "type": "uint256"
        }
      ],
      "name": "tokenURI",
      "outputs": [
        {
          "internalType": "string",
          "name": "",
          "type": "string"
        }
      ],
      "stateMutability": "view",
      "type": "function",
      "constant": true
    },
    {
      "inputs": [],
      "name": "totalSupply",
      "outputs": [
        {
          "internalType": "uint256",
          "name": "",
          "type": "uint256"
        }
      ],
      "stateMutability": "view",
      "type": "function",
      "constant": true
    },
    {
      "inputs": [
        {
          "internalType": "address",
          "name": "from",
          "type": "address"
        },
        {
          "internalType": "address",
          "name": "to",
          "type": "address"
        },
        {
          "internalType": "uint256",
          "name": "tokenId",
          "type": "uint256"
        }
      ],
      "name": "transferFrom",
      "outputs": [],
      "stateMutability": "nonpayable",
      "type": "function"
    },
    {
      "inputs": [
        {
          "internalType": "address",
          "name": "newOwner",
          "type": "address"
        }
      ],
      "name": "transferOwnership",
      "outputs": [],
      "stateMutability": "nonpayable",
      "type": "function"
    },
    {
      "stateMutability": "payable",
      "type": "receive",
      "payable": true
    },
    {
      "inputs": [
        {
          "internalType": "string",
          "name": "_uuid",
          "type": "string"
        },
        {
          "internalType": "string",
          "name": "_title",
          "type": "string"
        },
        {
          "internalType": "string",
          "name": "_description",
          "type": "string"
        },
        {
          "internalType": "string",
          "name": "_uri",
          "type": "string"
        },
        {
          "internalType": "uint256",
          "name": "_validationDate",
          "type": "uint256"
        },
        {
          "internalType": "string",
          "name": "_name",
          "type": "string"
        },
        {
          "internalType": "string",
          "name": "_fulladdress",
          "type": "string"
        },
        {
          "internalType": "string",
          "name": "_email",
          "type": "string"
        },
        {
          "internalType": "string",
          "name": "_website",
          "type": "string"
        },
        {
          "internalType": "string",
          "name": "_ipaddress",
          "type": "string"
        }
      ],
      "name": "addDocument",
      "outputs": [
        {
          "internalType": "uint256",
          "name": "",
          "type": "uint256"
        }
      ],
      "stateMutability": "payable",
      "type": "function",
      "payable": true
    },
    {
      "inputs": [
        {
          "internalType": "uint256",
          "name": "tokenId",
          "type": "uint256"
        }
      ],
      "name": "burnDocument",
      "outputs": [],
      "stateMutability": "nonpayable",
      "type": "function"
    },
    {
      "inputs": [
        {
          "internalType": "address payable",
          "name": "newReciver",
          "type": "address"
        }
      ],
      "name": "setNewRevicer",
      "outputs": [],
      "stateMutability": "nonpayable",
      "type": "function"
    },
    {
      "inputs": [
        {
          "internalType": "uint256",
          "name": "newFee",
          "type": "uint256"
        }
      ],
      "name": "setNewFeeInUSD",
      "outputs": [],
      "stateMutability": "nonpayable",
      "type": "function"
    },
    {
      "inputs": [
        {
          "internalType": "string",
          "name": "baseURI_",
          "type": "string"
        }
      ],
      "name": "setBaseURI",
      "outputs": [],
      "stateMutability": "nonpayable",
      "type": "function"
    },
    {
      "inputs": [
        {
          "internalType": "uint256",
          "name": "documentId",
          "type": "uint256"
        }
      ],
      "name": "getDocument",
      "outputs": [
        {
          "internalType": "uint256",
          "name": "id",
          "type": "uint256"
        },
        {
          "internalType": "string",
          "name": "uuid",
          "type": "string"
        },
        {
          "internalType": "string",
          "name": "title",
          "type": "string"
        },
        {
          "internalType": "string",
          "name": "description",
          "type": "string"
        },
        {
          "internalType": "string",
          "name": "uri",
          "type": "string"
        },
        {
          "internalType": "uint256",
          "name": "validationDate",
          "type": "uint256"
        },
        {
          "internalType": "uint256",
          "name": "timestamp",
          "type": "uint256"
        },
        {
          "internalType": "string",
          "name": "name",
          "type": "string"
        },
        {
          "internalType": "string",
          "name": "fulladdress",
          "type": "string"
        },
        {
          "internalType": "string",
          "name": "email",
          "type": "string"
        },
        {
          "internalType": "string",
          "name": "website",
          "type": "string"
        },
        {
          "internalType": "address",
          "name": "minter",
          "type": "address"
        },
        {
          "internalType": "string",
          "name": "ipaddress",
          "type": "string"
        }
      ],
      "stateMutability": "view",
      "type": "function",
      "constant": true
    },
    {
      "inputs": [],
      "name": "getTotalDocuments",
      "outputs": [
        {
          "internalType": "uint256",
          "name": "",
          "type": "uint256"
        }
      ],
      "stateMutability": "view",
      "type": "function",
      "constant": true
    },
    {
      "inputs": [],
      "name": "getCurrentPriceInEth",
      "outputs": [
        {
          "internalType": "uint256",
          "name": "",
          "type": "uint256"
        }
      ],
      "stateMutability": "view",
      "type": "function",
      "constant": true
    },
    {
      "inputs": [
        {
          "internalType": "uint256",
          "name": "documentId",
          "type": "uint256"
        }
      ],
      "name": "getURI",
      "outputs": [
        {
          "internalType": "string",
          "name": "uri",
          "type": "string"
        }
      ],
      "stateMutability": "view",
      "type": "function",
      "constant": true
    }
  ],
  "bytecode": "0x60806040523480156200001157600080fd5b5060405162003cd538038062003cd58339810160408190526200003491620002c9565b6040518060400160405280600e81526020016d47656e657261746f722e70696e6b60901b8152506040518060400160405280600981526020016823a2a722a920aa27a960b91b81525060006200008f620001b260201b60201c565b600080546001600160a01b0319166001600160a01b0383169081178255604051929350917f8be0079c531659141344cd1fd0a4f28419497f9722a3daafe3b4186f6b6457e0908290a350620000eb6301ffc9a760e01b620001b6565b8151620001009060079060208501906200022d565b508051620001169060089060208401906200022d565b50620001296380ac58cd60e01b620001b6565b6200013b635b5e139f60e01b620001b6565b6200014d63780e9d6360e01b620001b6565b5050600c839055600b80546001600160a01b038085166001600160a01b031992831617909255600d80549284169290911691909117905560408051606081019091526022808252620001a9919062003cb3602083013962000214565b50505062000360565b3390565b6001600160e01b03198082161415620001ec5760405162461bcd60e51b8152600401620001e39062000310565b60405180910390fd5b6001600160e01b0319166000908152600160208190526040909120805460ff19169091179055565b80516200022990600a9060208401906200022d565b5050565b828054600181600116156101000203166002900490600052602060002090601f016020900481019282601f106200027057805160ff1916838001178555620002a0565b82800160010185558215620002a0579182015b82811115620002a057825182559160200191906001019062000283565b50620002ae929150620002b2565b5090565b5b80821115620002ae5760008155600101620002b3565b600080600060608486031215620002de578283fd5b835192506020840151620002f28162000347565b6040850151909250620003058162000347565b809150509250925092565b6020808252601c908201527f4552433136353a20696e76616c696420696e7465726661636520696400000000604082015260600190565b6001600160a01b03811681146200035d57600080fd5b50565b61394380620003706000396000f3fe6080604052600436106101e75760003560e01c8063706a6c1311610102578063b88d4fde11610095578063db2bbabc11610064578063db2bbabc1461055b578063e90e7ad41461057b578063e985e9c514610590578063f2fde38b146105b0576101ee565b8063b88d4fde146104e6578063c2ed2b0514610506578063c87b56dd14610526578063d8f3f45c14610546576101ee565b80638da5cb5b116100d15780638da5cb5b14610487578063947991bc1461049c57806395d89b41146104b1578063a22cb465146104c6576101ee565b8063706a6c131461041f57806370a082311461043f578063715018a61461045f5780637fb929a214610474576101ee565b8063292e833b1161017a5780634f6ccce7116101495780634f6ccce7146103aa57806355f804b3146103ca5780636352211e146103ea5780636c0360eb1461040a576101ee565b8063292e833b1461031c5780632f745c59146103315780633f9b250a1461035157806342842e0e1461038a576101ee565b80630da12fe2116101b65780630da12fe21461029a57806318160ddd146102ba5780631aa347dc146102dc57806323b872dd146102fc576101ee565b806301ffc9a7146101f357806306fdde0314610229578063081812fc1461024b578063095ea7b314610278576101ee565b366101ee57005b600080fd5b3480156101ff57600080fd5b5061021361020e366004612dd8565b6105d0565b60405161022091906130d3565b60405180910390f35b34801561023557600080fd5b5061023e6105f3565b60405161022091906130de565b34801561025757600080fd5b5061026b610266366004612fe6565b610689565b6040516102209190613082565b34801561028457600080fd5b50610298610293366004612dad565b6106d5565b005b3480156102a657600080fd5b506102986102b5366004612fe6565b61076d565b3480156102c657600080fd5b506102cf6107b1565b604051610220919061373f565b3480156102e857600080fd5b5061023e6102f7366004612fe6565b6107c2565b34801561030857600080fd5b50610298610317366004612cd2565b6107d3565b34801561032857600080fd5b5061026b61080b565b34801561033d57600080fd5b506102cf61034c366004612dad565b61081a565b34801561035d57600080fd5b5061037161036c366004612fe6565b610843565b6040516102209d9c9b9a99989796959493929190613748565b34801561039657600080fd5b506102986103a5366004612cd2565b610ea6565b3480156103b657600080fd5b506102cf6103c5366004612fe6565b610ec1565b3480156103d657600080fd5b506102986103e5366004612e10565b610ed7565b3480156103f657600080fd5b5061026b610405366004612fe6565b610f22565b34801561041657600080fd5b5061023e610f4a565b34801561042b57600080fd5b5061029861043a366004612c7e565b610fab565b34801561044b57600080fd5b506102cf61045a366004612c7e565b61100c565b34801561046b57600080fd5b50610298611055565b6102cf610482366004612e43565b6110de565b34801561049357600080fd5b5061026b61133c565b3480156104a857600080fd5b506102cf61134b565b3480156104bd57600080fd5b5061023e611351565b3480156104d257600080fd5b506102986104e1366004612d7c565b6113b2565b3480156104f257600080fd5b50610298610501366004612d12565b611480565b34801561051257600080fd5b50610371610521366004612fe6565b6114bf565b34801561053257600080fd5b5061023e610541366004612fe6565b611a35565b34801561055257600080fd5b506102cf611b7b565b34801561056757600080fd5b50610298610576366004612fe6565b611b85565b34801561058757600080fd5b506102cf611d49565b34801561059c57600080fd5b506102136105ab366004612c9a565b611d4f565b3480156105bc57600080fd5b506102986105cb366004612c7e565b611d7d565b6001600160e01b0319811660009081526001602052604090205460ff165b919050565b60078054604080516020601f600260001961010060018816150201909516949094049384018190048102820181019092528281526060939092909183018282801561067f5780601f106106545761010080835404028352916020019161067f565b820191906000526020600020905b81548152906001019060200180831161066257829003601f168201915b5050505050905090565b600061069482611e3d565b6106b95760405162461bcd60e51b81526004016106b0906134a5565b60405180910390fd5b506000908152600560205260409020546001600160a01b031690565b60006106e082610f22565b9050806001600160a01b0316836001600160a01b031614156107145760405162461bcd60e51b81526004016106b09061363f565b806001600160a01b0316610726611e4a565b6001600160a01b031614806107425750610742816105ab611e4a565b61075e5760405162461bcd60e51b81526004016106b090613346565b6107688383611e4e565b505050565b610775611e4a565b6001600160a01b031661078661133c565b6001600160a01b0316146107ac5760405162461bcd60e51b81526004016106b09061353d565b600c55565b60006107bd6003611ebc565b905090565b60606107cd82611a35565b92915050565b6107e46107de611e4a565b82611ec7565b6108005760405162461bcd60e51b81526004016106b0906136b7565b610768838383611f4c565b600b546001600160a01b031681565b6001600160a01b038216600090815260026020526040812061083c908361205a565b9392505050565b6000606080606080600080606080606080600060606000600e8f8154811061086757fe5b90600052602060002090600d020190508e9d50806001018054600181600116156101000203166002900480601f0160208091040260200160405190810160405280929190818152602001828054600181600116156101000203166002900480156109125780601f106108e757610100808354040283529160200191610912565b820191906000526020600020905b8154815290600101906020018083116108f557829003601f168201915b50505050509c50806002018054600181600116156101000203166002900480601f0160208091040260200160405190810160405280929190818152602001828054600181600116156101000203166002900480156109b15780601f10610986576101008083540402835291602001916109b1565b820191906000526020600020905b81548152906001019060200180831161099457829003601f168201915b50505050509b50806003018054600181600116156101000203166002900480601f016020809104026020016040519081016040528092919081815260200182805460018160011615610100020316600290048015610a505780601f10610a2557610100808354040283529160200191610a50565b820191906000526020600020905b815481529060010190602001808311610a3357829003601f168201915b50505050509a50806004018054600181600116156101000203166002900480601f016020809104026020016040519081016040528092919081815260200182805460018160011615610100020316600290048015610aef5780601f10610ac457610100808354040283529160200191610aef565b820191906000526020600020905b815481529060010190602001808311610ad257829003601f168201915b505050505099508060050154985080600601549750806002018054600181600116156101000203166002900480601f016020809104026020016040519081016040528092919081815260200182805460018160011615610100020316600290048015610b9c5780601f10610b7157610100808354040283529160200191610b9c565b820191906000526020600020905b815481529060010190602001808311610b7f57829003601f168201915b50505050509b50806007018054600181600116156101000203166002900480601f016020809104026020016040519081016040528092919081815260200182805460018160011615610100020316600290048015610c3b5780601f10610c1057610100808354040283529160200191610c3b565b820191906000526020600020905b815481529060010190602001808311610c1e57829003601f168201915b5050505060088301805460408051602060026001851615610100026000190190941693909304601f8101849004840282018401909252818152949b50919250830182828015610ccb5780601f10610ca057610100808354040283529160200191610ccb565b820191906000526020600020905b815481529060010190602001808311610cae57829003601f168201915b5050505060098301805460408051602060026001851615610100026000190190941693909304601f8101849004840282018401909252818152949a50919250830182828015610d5b5780601f10610d3057610100808354040283529160200191610d5b565b820191906000526020600020905b815481529060010190602001808311610d3e57829003601f168201915b50505050600a8301805460408051602060026001851615610100026000190190941693909304601f8101849004840282018401909252818152949950919250830182828015610deb5780601f10610dc057610100808354040283529160200191610deb565b820191906000526020600020905b815481529060010190602001808311610dce57829003601f168201915b50505050600b830154600c8401805460408051602060026101006001861615026000190190941693909304601f81018490048402820184019092528181529599506001600160a01b039093169750909250830182828015610e8d5780601f10610e6257610100808354040283529160200191610e8d565b820191906000526020600020905b815481529060010190602001808311610e7057829003601f168201915b505050505091505091939597999b9d90929496989a9c50565b61076883838360405180602001604052806000815250611480565b600080610ecf600384612066565b509392505050565b610edf611e4a565b6001600160a01b0316610ef061133c565b6001600160a01b031614610f165760405162461bcd60e51b81526004016106b09061353d565b610f1f81612082565b50565b60006107cd826040518060600160405280602981526020016138e56029913960039190612095565b600a8054604080516020601f600260001961010060018816150201909516949094049384018190048102820181019092528281526060939092909183018282801561067f5780601f106106545761010080835404028352916020019161067f565b610fb3611e4a565b6001600160a01b0316610fc461133c565b6001600160a01b031614610fea5760405162461bcd60e51b81526004016106b09061353d565b600b80546001600160a01b0319166001600160a01b0392909216919091179055565b60006001600160a01b0382166110345760405162461bcd60e51b81526004016106b0906133a3565b6001600160a01b03821660009081526002602052604090206107cd90611ebc565b61105d611e4a565b6001600160a01b031661106e61133c565b6001600160a01b0316146110945760405162461bcd60e51b81526004016106b09061353d565b600080546040516001600160a01b03909116907f8be0079c531659141344cd1fd0a4f28419497f9722a3daafe3b4186f6b6457e0908390a3600080546001600160a01b0319169055565b60006110e86120a2565b3410156111075760405162461bcd60e51b81526004016106b09061327d565b600e54611112612ab0565b50604080516101a08101825282815260208082018f81529282018e9052606082018d9052608082018c905260a082018b90524260c083015260e082018a9052610100820189905261012082018890526101408201879052336101608301526101808201869052600e805460018101825560009190915282517fbb7b4a454dc3493923482f07822329ed19e8244eff582cc204f8554c3620c3fd600d909202918201908155935180519394859490936111ee937fbb7b4a454dc3493923482f07822329ed19e8244eff582cc204f8554c3620c3fe01920190612b21565b506040820151805161120a916002840191602090910190612b21565b5060608201518051611226916003840191602090910190612b21565b5060808201518051611242916004840191602090910190612b21565b5060a0820151600582015560c0820151600682015560e08201518051611272916007840191602090910190612b21565b50610100820151805161128f916008840191602090910190612b21565b5061012082015180516112ac916009840191602090910190612b21565b5061014082015180516112c991600a840191602090910190612b21565b50610160820151600b820180546001600160a01b0319166001600160a01b03909216919091179055610180820151805161130d91600c840191602090910190612b21565b50505061131a3383612142565b611324828b61215c565b61132c6121a0565b509b9a5050505050505050505050565b6000546001600160a01b031690565b600c5481565b60088054604080516020601f600260001961010060018816150201909516949094049384018190048102820181019092528281526060939092909183018282801561067f5780601f106106545761010080835404028352916020019161067f565b6113ba611e4a565b6001600160a01b0316826001600160a01b031614156113eb5760405162461bcd60e51b81526004016106b090613246565b80600660006113f8611e4a565b6001600160a01b03908116825260208083019390935260409182016000908120918716808252919093529120805460ff19169215159290921790915561143c611e4a565b6001600160a01b03167f17307eab39ab6107e8899845ad3d59bd9653f200f220920489ca2b5937696c318360405161147491906130d3565b60405180910390a35050565b61149161148b611e4a565b83611ec7565b6114ad5760405162461bcd60e51b81526004016106b0906136b7565b6114b9848484846121d9565b50505050565b600e81815481106114cc57fe5b90600052602060002090600d0201600091509050806000015490806001018054600181600116156101000203166002900480601f01602080910402602001604051908101604052809291908181526020018280546001816001161561010002031660029004801561157e5780601f106115535761010080835404028352916020019161157e565b820191906000526020600020905b81548152906001019060200180831161156157829003601f168201915b50505060028085018054604080516020601f60001961010060018716150201909416959095049283018590048502810185019091528181529596959450909250908301828280156116105780601f106115e557610100808354040283529160200191611610565b820191906000526020600020905b8154815290600101906020018083116115f357829003601f168201915b5050505060038301805460408051602060026001851615610100026000190190941693909304601f81018490048402820184019092528181529495949350908301828280156116a05780601f10611675576101008083540402835291602001916116a0565b820191906000526020600020905b81548152906001019060200180831161168357829003601f168201915b5050505060048301805460408051602060026001851615610100026000190190941693909304601f81018490048402820184019092528181529495949350908301828280156117305780601f1061170557610100808354040283529160200191611730565b820191906000526020600020905b81548152906001019060200180831161171357829003601f168201915b505050505090806005015490806006015490806007018054600181600116156101000203166002900480601f0160208091040260200160405190810160405280929190818152602001828054600181600116156101000203166002900480156117da5780601f106117af576101008083540402835291602001916117da565b820191906000526020600020905b8154815290600101906020018083116117bd57829003601f168201915b5050505060088301805460408051602060026001851615610100026000190190941693909304601f810184900484028201840190925281815294959493509083018282801561186a5780601f1061183f5761010080835404028352916020019161186a565b820191906000526020600020905b81548152906001019060200180831161184d57829003601f168201915b5050505060098301805460408051602060026001851615610100026000190190941693909304601f81018490048402820184019092528181529495949350908301828280156118fa5780601f106118cf576101008083540402835291602001916118fa565b820191906000526020600020905b8154815290600101906020018083116118dd57829003601f168201915b50505050600a8301805460408051602060026001851615610100026000190190941693909304601f810184900484028201840190925281815294959493509083018282801561198a5780601f1061195f5761010080835404028352916020019161198a565b820191906000526020600020905b81548152906001019060200180831161196d57829003601f168201915b50505050600b830154600c8401805460408051602060026101006001861615026000190190941693909304601f810184900484028201840190925281815295966001600160a01b039094169593945090830182828015611a2b5780601f10611a0057610100808354040283529160200191611a2b565b820191906000526020600020905b815481529060010190602001808311611a0e57829003601f168201915b505050505090508d565b6060611a4082611e3d565b611a5c5760405162461bcd60e51b81526004016106b0906135bb565b60008281526009602090815260409182902080548351601f6002600019610100600186161502019093169290920491820184900484028101840190945280845260609392830182828015611af15780601f10611ac657610100808354040283529160200191611af1565b820191906000526020600020905b815481529060010190602001808311611ad457829003601f168201915b505050505090506060611b02610f4a565b9050805160001415611b16575090506105ee565b815115611b48578082604051602001611b30929190613053565b604051602081830303815290604052925050506105ee565b80611b528561220c565b604051602001611b63929190613053565b60405160208183030381529060405292505050919050565b60006107bd6120a2565b611b906107de611e4a565b611bac5760405162461bcd60e51b81526004016106b09061360a565b6000600e8281548110611bbb57fe5b90600052602060002090600d0201905060405180602001604052806000815250816001019080519060200190611bf2929190612b21565b50604080516020810191829052600090819052611c13916002840191612b21565b50604080516020810191829052600090819052611c34916003840191612b21565b50604080516020810191829052600090819052611c55916004840191612b21565b5060006005820181905560068201819055604080516020810191829052829052611c8491600284019190612b21565b50604080516020810191829052600090819052611ca5916009840191612b21565b50604080516020810191829052600090819052611cc6916007840191612b21565b50604080516020810191829052600090819052611ce7916008840191612b21565b50604080516020810191829052600090819052611d0891600a840191612b21565b50600b810180546001600160a01b0319169055604080516020810191829052600090819052611d3b91600c840191612b21565b50611d45826122e7565b5050565b600e5490565b6001600160a01b03918216600090815260066020908152604080832093909416825291909152205460ff1690565b611d85611e4a565b6001600160a01b0316611d9661133c565b6001600160a01b031614611dbc5760405162461bcd60e51b81526004016106b09061353d565b6001600160a01b038116611de25760405162461bcd60e51b81526004016106b090613185565b600080546040516001600160a01b03808516939216917f8be0079c531659141344cd1fd0a4f28419497f9722a3daafe3b4186f6b6457e091a3600080546001600160a01b0319166001600160a01b0392909216919091179055565b60006107cd6003836123b4565b3390565b600081815260056020526040902080546001600160a01b0319166001600160a01b0384169081179091558190611e8382610f22565b6001600160a01b03167f8c5be1e5ebec7d5bd14f71427d1e84f3dd0314c0f7b2291e5b200ac8c7c3b92560405160405180910390a45050565b60006107cd826123c0565b6000611ed282611e3d565b611eee5760405162461bcd60e51b81526004016106b0906132fa565b6000611ef983610f22565b9050806001600160a01b0316846001600160a01b03161480611f345750836001600160a01b0316611f2984610689565b6001600160a01b0316145b80611f445750611f448185611d4f565b949350505050565b826001600160a01b0316611f5f82610f22565b6001600160a01b031614611f855760405162461bcd60e51b81526004016106b090613572565b6001600160a01b038216611fab5760405162461bcd60e51b81526004016106b090613202565b611fb6838383610768565b611fc1600082611e4e565b6001600160a01b0383166000908152600260205260409020611fe390826123c4565b506001600160a01b038216600090815260026020526040902061200690826123d0565b50612013600382846123dc565b5080826001600160a01b0316846001600160a01b03167fddf252ad1be2c89b69c2b068fc378daa952ba7f163c4a11628f55a4df523b3ef60405160405180910390a4505050565b600061083c83836123f2565b60008080806120758686612437565b9097909650945050505050565b8051611d4590600a906020840190612b21565b6000611f44848484612493565b60006120ac612b9f565b600d5460405163195556f360e21b81526001600160a01b03909116906365555bcc906120da90600401613680565b60606040518083038186803b1580156120f257600080fd5b505afa158015612106573d6000803e3d6000fd5b505050506040513d601f19601f8201168201806040525081019061212a9190612fa9565b600c54815191925061213c91906124f2565b91505090565b611d4582826040518060200160405280600081525061252c565b61216582611e3d565b6121815760405162461bcd60e51b81526004016106b0906134f1565b6000828152600960209081526040909120825161076892840190612b21565b600b546040516001600160a01b03909116904780156108fc02916000818181858888f19350505050158015610f1f573d6000803e3d6000fd5b6121e4848484611f4c565b6121f08484848461255f565b6114b95760405162461bcd60e51b81526004016106b090613133565b60608161223157506040805180820190915260018152600360fc1b60208201526105ee565b8160005b811561224957600101600a82049150612235565b60608167ffffffffffffffff8111801561226257600080fd5b506040519080825280601f01601f19166020018201604052801561228d576020820181803683370190505b50859350905060001982015b83156122de57600a840660300160f81b828280600190039350815181106122bc57fe5b60200101906001600160f81b031916908160001a905350600a84049350612299565b50949350505050565b60006122f282610f22565b905061230081600084610768565b61230b600083611e4e565b600082815260096020526040902054600260001961010060018416150201909116041561234957600082815260096020526040812061234991612bc0565b6001600160a01b038116600090815260026020526040902061236b90836123c4565b5061237760038361263e565b5060405182906000906001600160a01b038416907fddf252ad1be2c89b69c2b068fc378daa952ba7f163c4a11628f55a4df523b3ef908390a45050565b600061083c838361264a565b5490565b600061083c8383612662565b600061083c8383612728565b6000611f4484846001600160a01b038516612772565b815460009082106124155760405162461bcd60e51b81526004016106b0906130f1565b82600001828154811061242457fe5b9060005260206000200154905092915050565b81546000908190831061245c5760405162461bcd60e51b81526004016106b0906133ed565b600084600001848154811061246d57fe5b906000526020600020906002020190508060000154816001015492509250509250929050565b600082815260018401602052604081205482816124c35760405162461bcd60e51b81526004016106b091906130de565b508460000160018203815481106124d657fe5b9060005260206000209060020201600101549150509392505050565b600082612501575060006107cd565b8282028284828161250e57fe5b041461083c5760405162461bcd60e51b81526004016106b090613464565b6125368383612809565b612543600084848461255f565b6107685760405162461bcd60e51b81526004016106b090613133565b6000612573846001600160a01b03166128cd565b61257f57506001611f44565b6060612607630a85bd0160e11b612594611e4a565b8887876040516024016125aa9493929190613096565b604051602081830303815290604052906001600160e01b0319166020820180516001600160e01b0383818316178352505050506040518060600160405280603281526020016138b3603291396001600160a01b03881691906128d3565b905060008180602001905181019061261f9190612df4565b6001600160e01b031916630a85bd0160e11b1492505050949350505050565b600061083c83836128e2565b60009081526001919091016020526040902054151590565b6000818152600183016020526040812054801561271e578354600019808301919081019060009087908390811061269557fe5b90600052602060002001549050808760000184815481106126b257fe5b6000918252602080832090910192909255828152600189810190925260409020908401905586548790806126e257fe5b600190038181906000526020600020016000905590558660010160008781526020019081526020016000206000905560019450505050506107cd565b60009150506107cd565b6000612734838361264a565b61276a575081546001818101845560008481526020808220909301849055845484825282860190935260409020919091556107cd565b5060006107cd565b6000828152600184016020526040812054806127d757505060408051808201825283815260208082018481528654600181810189556000898152848120955160029093029095019182559151908201558654868452818801909252929091205561083c565b828560000160018303815481106127ea57fe5b906000526020600020906002020160010181905550600091505061083c565b6001600160a01b03821661282f5760405162461bcd60e51b81526004016106b09061342f565b61283881611e3d565b156128555760405162461bcd60e51b81526004016106b0906131cb565b61286160008383610768565b6001600160a01b038216600090815260026020526040902061288390826123d0565b50612890600382846123dc565b5060405181906001600160a01b038416906000907fddf252ad1be2c89b69c2b068fc378daa952ba7f163c4a11628f55a4df523b3ef908290a45050565b3b151590565b6060611f4484846000856129b6565b6000818152600183016020526040812054801561271e578354600019808301919081019060009087908390811061291557fe5b906000526020600020906002020190508087600001848154811061293557fe5b60009182526020808320845460029093020191825560019384015491840191909155835482528983019052604090209084019055865487908061297457fe5b60008281526020808220600260001990940193840201828155600190810183905592909355888152898201909252604082209190915594506107cd9350505050565b6060824710156129d85760405162461bcd60e51b81526004016106b0906132b4565b6129e1856128cd565b6129fd5760405162461bcd60e51b81526004016106b090613708565b60006060866001600160a01b03168587604051612a1a9190613037565b60006040518083038185875af1925050503d8060008114612a57576040519150601f19603f3d011682016040523d82523d6000602084013e612a5c565b606091505b5091509150612a6c828286612a77565b979650505050505050565b60608315612a8657508161083c565b825115612a965782518084602001fd5b8160405162461bcd60e51b81526004016106b091906130de565b604051806101a00160405280600081526020016060815260200160608152602001606081526020016060815260200160008152602001600081526020016060815260200160608152602001606081526020016060815260200160006001600160a01b03168152602001606081525090565b828054600181600116156101000203166002900490600052602060002090601f016020900481019282601f10612b6257805160ff1916838001178555612b8f565b82800160010185558215612b8f579182015b82811115612b8f578251825591602001919060010190612b74565b50612b9b929150612c00565b5090565b60405180606001604052806000815260200160008152602001600081525090565b50805460018160011615610100020316600290046000825580601f10612be65750610f1f565b601f016020900490600052602060002090810190610f1f91905b5b80821115612b9b5760008155600101612c01565b600082601f830112612c25578081fd5b813567ffffffffffffffff811115612c3b578182fd5b612c4e601f8201601f1916602001613834565b9150808252836020828501011115612c6557600080fd5b8060208401602084013760009082016020015292915050565b600060208284031215612c8f578081fd5b813561083c81613887565b60008060408385031215612cac578081fd5b8235612cb781613887565b91506020830135612cc781613887565b809150509250929050565b600080600060608486031215612ce6578081fd5b8335612cf181613887565b92506020840135612d0181613887565b929592945050506040919091013590565b60008060008060808587031215612d27578081fd5b8435612d3281613887565b93506020850135612d4281613887565b925060408501359150606085013567ffffffffffffffff811115612d64578182fd5b612d7087828801612c15565b91505092959194509250565b60008060408385031215612d8e578182fd5b8235612d9981613887565b915060208301358015158114612cc7578182fd5b60008060408385031215612dbf578182fd5b8235612dca81613887565b946020939093013593505050565b600060208284031215612de9578081fd5b813561083c8161389c565b600060208284031215612e05578081fd5b815161083c8161389c565b600060208284031215612e21578081fd5b813567ffffffffffffffff811115612e37578182fd5b611f4484828501612c15565b6000806000806000806000806000806101408b8d031215612e62578586fd5b8a3567ffffffffffffffff80821115612e79578788fd5b612e858e838f01612c15565b9b5060208d0135915080821115612e9a578788fd5b612ea68e838f01612c15565b9a5060408d0135915080821115612ebb578788fd5b612ec78e838f01612c15565b995060608d0135915080821115612edc578788fd5b612ee88e838f01612c15565b985060808d0135975060a08d0135915080821115612f04578687fd5b612f108e838f01612c15565b965060c08d0135915080821115612f25578586fd5b612f318e838f01612c15565b955060e08d0135915080821115612f46578485fd5b612f528e838f01612c15565b94506101008d0135915080821115612f68578384fd5b612f748e838f01612c15565b93506101208d0135915080821115612f8a578283fd5b50612f978d828e01612c15565b9150509295989b9194979a5092959850565b600060608284031215612fba578081fd5b612fc46060613834565b8251815260208301516020820152604083015160408201528091505092915050565b600060208284031215612ff7578081fd5b5035919050565b6001600160a01b03169052565b6000815180845261302381602086016020860161385b565b601f01601f19169290920160200192915050565b6000825161304981846020870161385b565b9190910192915050565b6000835161306581846020880161385b565b83519083019061307981836020880161385b565b01949350505050565b6001600160a01b0391909116815260200190565b6001600160a01b03858116825284166020820152604081018390526080606082018190526000906130c99083018461300b565b9695505050505050565b901515815260200190565b60006020825261083c602083018461300b565b60208082526022908201527f456e756d657261626c655365743a20696e646578206f7574206f6620626f756e604082015261647360f01b606082015260800190565b60208082526032908201527f4552433732313a207472616e7366657220746f206e6f6e20455243373231526560408201527131b2b4bb32b91034b6b83632b6b2b73a32b960711b606082015260800190565b60208082526026908201527f4f776e61626c653a206e6577206f776e657220697320746865207a65726f206160408201526564647265737360d01b606082015260800190565b6020808252601c908201527f4552433732313a20746f6b656e20616c7265616479206d696e74656400000000604082015260600190565b60208082526024908201527f4552433732313a207472616e7366657220746f20746865207a65726f206164646040820152637265737360e01b606082015260800190565b60208082526019908201527f4552433732313a20617070726f766520746f2063616c6c657200000000000000604082015260600190565b6020808252601d908201527f6d73672e73656e64657220646964206e6f742070617920656e6f756768000000604082015260600190565b60208082526026908201527f416464726573733a20696e73756666696369656e742062616c616e636520666f6040820152651c8818d85b1b60d21b606082015260800190565b6020808252602c908201527f4552433732313a206f70657261746f7220717565727920666f72206e6f6e657860408201526b34b9ba32b73a103a37b5b2b760a11b606082015260800190565b60208082526038908201527f4552433732313a20617070726f76652063616c6c6572206973206e6f74206f7760408201527f6e6572206e6f7220617070726f76656420666f7220616c6c0000000000000000606082015260800190565b6020808252602a908201527f4552433732313a2062616c616e636520717565727920666f7220746865207a65604082015269726f206164647265737360b01b606082015260800190565b60208082526022908201527f456e756d657261626c654d61703a20696e646578206f7574206f6620626f756e604082015261647360f01b606082015260800190565b6020808252818101527f4552433732313a206d696e7420746f20746865207a65726f2061646472657373604082015260600190565b60208082526021908201527f536166654d6174683a206d756c7469706c69636174696f6e206f766572666c6f6040820152607760f81b606082015260800190565b6020808252602c908201527f4552433732313a20617070726f76656420717565727920666f72206e6f6e657860408201526b34b9ba32b73a103a37b5b2b760a11b606082015260800190565b6020808252602c908201527f4552433732314d657461646174613a2055524920736574206f66206e6f6e657860408201526b34b9ba32b73a103a37b5b2b760a11b606082015260800190565b6020808252818101527f4f776e61626c653a2063616c6c6572206973206e6f7420746865206f776e6572604082015260600190565b60208082526029908201527f4552433732313a207472616e73666572206f6620746f6b656e2074686174206960408201526839903737ba1037bbb760b91b606082015260800190565b6020808252602f908201527f4552433732314d657461646174613a2055524920717565727920666f72206e6f60408201526e3732bc34b9ba32b73a103a37b5b2b760891b606082015260800190565b6020808252818101527f63616c6c6572206973206e6f74206f776e6572206e6f7220617070726f766564604082015260600190565b60208082526021908201527f4552433732313a20617070726f76616c20746f2063757272656e74206f776e656040820152603960f91b606082015260800190565b60408082526003908201819052621554d160ea1b60608301526080602083018190528201526208aa8960eb1b60a082015260c00190565b60208082526031908201527f4552433732313a207472616e736665722063616c6c6572206973206e6f74206f6040820152701ddb995c881b9bdc88185c1c1c9bdd9959607a1b606082015260800190565b6020808252601d908201527f416464726573733a2063616c6c20746f206e6f6e2d636f6e7472616374000000604082015260600190565b90815260200190565b60008e82526101a060208301526137636101a083018f61300b565b8281036040840152613775818f61300b565b90508281036060840152613789818e61300b565b9050828103608084015261379d818d61300b565b90508a60a08401528960c084015282810360e08401526137bd818a61300b565b90508281036101008401526137d2818961300b565b90508281036101208401526137e7818861300b565b90508281036101408401526137fc818761300b565b905061380c610160840186612ffe565b82810361018084015261381f818561300b565b9150509e9d5050505050505050505050505050565b60405181810167ffffffffffffffff8111828210171561385357600080fd5b604052919050565b60005b8381101561387657818101518382015260200161385e565b838111156114b95750506000910152565b6001600160a01b0381168114610f1f57600080fd5b6001600160e01b031981168114610f1f57600080fdfe4552433732313a207472616e7366657220746f206e6f6e20455243373231526563656976657220696d706c656d656e7465724552433732313a206f776e657220717565727920666f72206e6f6e6578697374656e7420746f6b656ea264697066735822122025afc7d49338e79ecfff1c2df9e96fbf3daf86fe4f9bd15ebaf4e49c3f6136c764736f6c6343000700003368747470733a2f2f676174657761792e70696e6174612e636c6f75642f697066732f",
  "immutableReferences": {},
  "source": "pragma solidity 0.7.0; \npragma experimental ABIEncoderV2;\n\nimport \"@openzeppelin/contracts/math/SafeMath.sol\";\nimport \"@openzeppelin/contracts/access/Ownable.sol\";\nimport \"@openzeppelin/contracts/token/ERC721/ERC721.sol\";\n\ninterface IStdReference {\n    /// A structure returned whenever someone requests for standard reference data.\n    struct ReferenceData {\n        uint256 rate; // base/quote exchange rate, multiplied by 1e18.\n        uint256 lastUpdatedBase; // UNIX epoch of the last time when base price gets updated.\n        uint256 lastUpdatedQuote; // UNIX epoch of the last time when quote price gets updated.\n    }\n\n    /// Returns the price data for the given base/quote pair. Revert if not available.\n    function getReferenceData(string memory _base, string memory _quote)\n        external\n        view\n        returns (ReferenceData memory);\n\n    /// Similar to getReferenceData, but with multiple base/quote pairs at once.\n    function getReferenceDataBulk(string[] memory _bases, string[] memory _quotes)\n        external\n        view\n        returns (ReferenceData[] memory);\n}\n\n\n\ncontract GeneratorBase is Ownable, ERC721(\"Generator.pink\",\"GENERATOR\") {\n\n    /* ========== Structs and contracts variables ========== */\n    using SafeMath for uint256;\n    // The address the recives all the fees from the contract\n    address payable public feeReciver; \n    // The fee amount denominated in USD amount Ex. 1 USD = 1* 10^18;\n    uint256 public USD_FEE; \n\n    // The oracle refferance address\n    IStdReference ref;\n\n   \n    struct Document {\n        uint256 id;\n\n        string uuid;\n\n        // Token Title\n        string title;\n        // Description of connected file\n        string description;\n        // Link to document\n        string uri; \n        // Validity Date\n        uint validationDate; \n        // Mint timestamp.\n        uint timestamp; \n\n        string  name;\n\n        string  fulladdress;\n\n        string email; \n\n        string website; \n\n        address minter; \n\n        string ipaddress; \n    }\n\n    Document[] public documents;\n\n    /* ========== CONSTRUCTOR ========== */\n\n    /**\n     * @dev \n     * @param _fee the base fee nominated in USD only NO DECIMAL NUMBERS ACCEPTED.\n     * @param _reciver This is the address where all the fee's will be sent to. \n     */\n    constructor (\n        uint256 _fee,\n        address payable _reciver,\n        IStdReference _ref\n    ) {\n        USD_FEE = _fee;\n        feeReciver = _reciver;\n        ref = _ref;\n        _setBaseURI('https://gateway.pinata.cloud/ipfs/');\n\n    }\n\n    /* ========== EXTERNAL MUTABLE FUNCTIONS ========== */\n    \n    /**\n     * @dev  Add a document\n     * @param _title Title of the document.\n     * @param _description Short Description. \n     * @param _uri The URI. \n     * @param _validationDate Validation Date of document.\n     * @param _email Email address of the creator\n     * @param _website Website of creator.\n     */\n    function addDocument (\n        string memory _uuid,\n        string memory _title,\n        string memory _description, \n        string memory _uri, \n        uint256 _validationDate,\n        string memory _name, \n        string memory _fulladdress,\n        string memory _email, \n        string memory _website,\n        string memory _ipaddress\n    ) public payable returns(uint256) {\n        // handle the payment for the minting proccess.\n\n           \n        // require that the caller has send enough to the contract\n        require(msg.value >= get_FEE_IN_ETH(), 'msg.sender did not pay enough');\n\n\n        // handle the minting of the new token.\n\n        // Grab the ID of the document to make. \n        uint256 newid = documents.length; \n        // Assemble the struct. \n        Document memory newDoc = Document({\n            id: newid,\n            uuid: _uuid,\n            title: _title,\n            description: _description,\n            uri: _uri,\n            validationDate: _validationDate,\n            timestamp: block.timestamp,\n            name: _name,\n            fulladdress: _fulladdress,\n            email: _email,\n            website: _website,\n            minter: msg.sender,\n            ipaddress: _ipaddress\n        });\n        // Push it to the array \n        documents.push(newDoc); \n\n        // mint the token to this address\n        _safeMint(msg.sender, newid);\n\n        _setTokenURI(newid, _uri);\n\n        payReciver();\n\n        return  newid; \n    }\n\n\n    function burnDocument(uint256 tokenId) public {\n        require(_isApprovedOrOwner(_msgSender(), tokenId), \"caller is not owner nor approved\");\n        Document storage doc = documents[tokenId];\n        doc.uuid = '';\n        doc.title = ''; \n        doc.description = ''; \n        doc.uri = '';\n        doc.validationDate = 0;\n        doc.timestamp = 0;\n        doc.title = '';\n        doc.email ='';\n        doc.name = '';\n        doc.fulladdress = '';\n        doc.website ='';\n        doc.minter = 0x0000000000000000000000000000000000000000;\n        doc.ipaddress ='';\n        _burn(tokenId);\n    } \n\n\n    /** \n     * @dev sets a new reciver for the fee. \n     * @param newReciver .\n     */\n    function setNewRevicer(address payable newReciver) public onlyOwner {\n        feeReciver = newReciver;\n\n    }\n\n     /** \n     * @dev sets a new fee amount in USD. Ex. 1 USD. NOT 0.1 USD NO DECIMALS POSSIBLE\n     * @param newFee .\n     */\n    function setNewFeeInUSD(uint256 newFee) public onlyOwner {\n        USD_FEE = newFee;\n\n    }\n\n    function setBaseURI(string memory baseURI_) public onlyOwner {\n        _setBaseURI(baseURI_);\n    }\n\n    /* ========== VIEW FUNCTIONS ========== */\n    /**\n     * @dev  Get the info from the document. \n     * @param documentId the ID of the document you want to retrive info from.\n     */\n    function getDocument(uint256 documentId) \n        public\n        view\n        returns (\n            uint256 id,\n            string memory uuid, \n            string memory title, \n            string memory description, \n            string memory uri, \n            uint256 validationDate,\n            uint256 timestamp, \n            string memory name,\n            string memory fulladdress,\n            string memory email, \n            string memory website,\n            address minter,\n            string memory ipaddress\n        )\n    {\n        Document storage doc = documents[documentId];\n        id = documentId; \n        uuid = doc.uuid;\n        title = doc.title; \n        description = doc.description; \n        uri = doc.uri;\n        validationDate = doc.validationDate;\n        timestamp = doc.timestamp;\n        title = doc.title;\n        name = doc.name;\n        fulladdress = doc.fulladdress;\n        email = doc.email;\n        website = doc.website;\n        minter = doc.minter;\n        ipaddress = doc.ipaddress;\n    }\n\n    function getTotalDocuments () public view returns (uint256) {\n        return documents.length;\n    }\n    \n    function getCurrentPriceInEth() public view returns (uint256) {\n        return get_FEE_IN_ETH();\n    }\n\n    function getURI(uint256 documentId) external view returns (string memory uri) {\n        uri = tokenURI(documentId);\n    }\n    \n    /* ========== INTERNAL FUNCTIONS ========== */\n\n    /**\n     * @dev  Function to return the price of 1 USD in ETH. Then multiplied by the USD_FEE to get the correct ETH value. Using BAND oracle contract for this. \n     */\n\n    function get_FEE_IN_ETH() internal view returns(uint256){\n        IStdReference.ReferenceData memory data = ref.getReferenceData('USD', 'ETH');\n        return data.rate.mul(USD_FEE);\n    }\n\n    function payReciver() internal {\n        feeReciver.transfer(address(this).balance);\n    }\n\n    \n\n    /* ====== MODIFIERS ====== */\n\n     \n\n    /* ====== FALLBACK ====== */\n\n    receive() external payable {}\n   \n}\n",
  "sourcePath": "/Users/lexcalebout/Desktop/Dev-Projects/generator/packages/contracts/contracts/GeneratorBase.sol",
  "compiler": {
    "name": "solc",
    "version": "0.7.0+commit.9e61f92b.Emscripten.clang"
  },
  "schemaVersion": "3.3.4",
  "updatedAt": "2021-05-07T17:06:43.446Z",
  "networkType": "ethereum",
  "devdoc": {
    "kind": "dev",
    "methods": {
      "addDocument(string,string,string,string,uint256,string,string,string,string,string)": {
        "details": "Add a document",
        "params": {
          "_description": "Short Description. ",
          "_email": "Email address of the creator",
          "_title": "Title of the document.",
          "_uri": "The URI. ",
          "_validationDate": "Validation Date of document.",
          "_website": "Website of creator."
        }
      },
      "approve(address,uint256)": {
        "details": "See {IERC721-approve}."
      },
      "balanceOf(address)": {
        "details": "See {IERC721-balanceOf}."
      },
      "baseURI()": {
        "details": "Returns the base URI set via {_setBaseURI}. This will be automatically added as a prefix in {tokenURI} to each token's URI, or to the token ID if no specific URI is set for that token ID."
      },
      "constructor": {
        "params": {
          "_fee": "the base fee nominated in USD only NO DECIMAL NUMBERS ACCEPTED.",
          "_reciver": "This is the address where all the fee's will be sent to. "
        }
      },
      "getApproved(uint256)": {
        "details": "See {IERC721-getApproved}."
      },
      "getDocument(uint256)": {
        "details": "Get the info from the document. ",
        "params": {
          "documentId": "the ID of the document you want to retrive info from."
        }
      },
      "isApprovedForAll(address,address)": {
        "details": "See {IERC721-isApprovedForAll}."
      },
      "name()": {
        "details": "See {IERC721Metadata-name}."
      },
      "owner()": {
        "details": "Returns the address of the current owner."
      },
      "ownerOf(uint256)": {
        "details": "See {IERC721-ownerOf}."
      },
      "renounceOwnership()": {
        "details": "Leaves the contract without owner. It will not be possible to call `onlyOwner` functions anymore. Can only be called by the current owner. NOTE: Renouncing ownership will leave the contract without an owner, thereby removing any functionality that is only available to the owner."
      },
      "safeTransferFrom(address,address,uint256)": {
        "details": "See {IERC721-safeTransferFrom}."
      },
      "safeTransferFrom(address,address,uint256,bytes)": {
        "details": "See {IERC721-safeTransferFrom}."
      },
      "setApprovalForAll(address,bool)": {
        "details": "See {IERC721-setApprovalForAll}."
      },
      "setNewFeeInUSD(uint256)": {
        "details": "sets a new fee amount in USD. Ex. 1 USD. NOT 0.1 USD NO DECIMALS POSSIBLE",
        "params": {
          "newFee": "."
        }
      },
      "setNewRevicer(address)": {
        "details": "sets a new reciver for the fee. ",
        "params": {
          "newReciver": "."
        }
      },
      "supportsInterface(bytes4)": {
        "details": "See {IERC165-supportsInterface}. Time complexity O(1), guaranteed to always use less than 30 000 gas."
      },
      "symbol()": {
        "details": "See {IERC721Metadata-symbol}."
      },
      "tokenByIndex(uint256)": {
        "details": "See {IERC721Enumerable-tokenByIndex}."
      },
      "tokenOfOwnerByIndex(address,uint256)": {
        "details": "See {IERC721Enumerable-tokenOfOwnerByIndex}."
      },
      "tokenURI(uint256)": {
        "details": "See {IERC721Metadata-tokenURI}."
      },
      "totalSupply()": {
        "details": "See {IERC721Enumerable-totalSupply}."
      },
      "transferFrom(address,address,uint256)": {
        "details": "See {IERC721-transferFrom}."
      },
      "transferOwnership(address)": {
        "details": "Transfers ownership of the contract to a new account (`newOwner`). Can only be called by the current owner."
      }
    },
    "version": 1
  },
  "userdoc": {
    "kind": "user",
    "methods": {},
    "version": 1
  }
}