{
  "contractName": "GeneratorBase",
  "abi": [
    {
      "inputs": [
        {
          "internalType": "uint256",
          "name": "_fee",
          "type": "uint256"
        },
        {
          "internalType": "address payable",
          "name": "_reciver",
          "type": "address"
        },
        {
          "internalType": "contract IStdReference",
          "name": "_ref",
          "type": "address"
        }
      ],
      "stateMutability": "nonpayable",
      "type": "constructor"
    },
    {
      "anonymous": false,
      "inputs": [
        {
          "indexed": true,
          "internalType": "address",
          "name": "owner",
          "type": "address"
        },
        {
          "indexed": true,
          "internalType": "address",
          "name": "approved",
          "type": "address"
        },
        {
          "indexed": true,
          "internalType": "uint256",
          "name": "tokenId",
          "type": "uint256"
        }
      ],
      "name": "Approval",
      "type": "event"
    },
    {
      "anonymous": false,
      "inputs": [
        {
          "indexed": true,
          "internalType": "address",
          "name": "owner",
          "type": "address"
        },
        {
          "indexed": true,
          "internalType": "address",
          "name": "operator",
          "type": "address"
        },
        {
          "indexed": false,
          "internalType": "bool",
          "name": "approved",
          "type": "bool"
        }
      ],
      "name": "ApprovalForAll",
      "type": "event"
    },
    {
      "anonymous": false,
      "inputs": [
        {
          "indexed": true,
          "internalType": "address",
          "name": "previousOwner",
          "type": "address"
        },
        {
          "indexed": true,
          "internalType": "address",
          "name": "newOwner",
          "type": "address"
        }
      ],
      "name": "OwnershipTransferred",
      "type": "event"
    },
    {
      "anonymous": false,
      "inputs": [
        {
          "indexed": true,
          "internalType": "address",
          "name": "from",
          "type": "address"
        },
        {
          "indexed": true,
          "internalType": "address",
          "name": "to",
          "type": "address"
        },
        {
          "indexed": true,
          "internalType": "uint256",
          "name": "tokenId",
          "type": "uint256"
        }
      ],
      "name": "Transfer",
      "type": "event"
    },
    {
      "inputs": [],
      "name": "USD_FEE",
      "outputs": [
        {
          "internalType": "uint256",
          "name": "",
          "type": "uint256"
        }
      ],
      "stateMutability": "view",
      "type": "function"
    },
    {
      "inputs": [
        {
          "internalType": "address",
          "name": "to",
          "type": "address"
        },
        {
          "internalType": "uint256",
          "name": "tokenId",
          "type": "uint256"
        }
      ],
      "name": "approve",
      "outputs": [],
      "stateMutability": "nonpayable",
      "type": "function"
    },
    {
      "inputs": [
        {
          "internalType": "address",
          "name": "owner",
          "type": "address"
        }
      ],
      "name": "balanceOf",
      "outputs": [
        {
          "internalType": "uint256",
          "name": "",
          "type": "uint256"
        }
      ],
      "stateMutability": "view",
      "type": "function"
    },
    {
      "inputs": [],
      "name": "baseURI",
      "outputs": [
        {
          "internalType": "string",
          "name": "",
          "type": "string"
        }
      ],
      "stateMutability": "view",
      "type": "function"
    },
    {
      "inputs": [
        {
          "internalType": "uint256",
          "name": "",
          "type": "uint256"
        }
      ],
      "name": "documents",
      "outputs": [
        {
          "internalType": "uint256",
          "name": "id",
          "type": "uint256"
        },
        {
          "internalType": "string",
          "name": "uuid",
          "type": "string"
        },
        {
          "internalType": "string",
          "name": "title",
          "type": "string"
        },
        {
          "internalType": "string",
          "name": "description",
          "type": "string"
        },
        {
          "internalType": "string",
          "name": "uri",
          "type": "string"
        },
        {
          "internalType": "uint256",
          "name": "validationDate",
          "type": "uint256"
        },
        {
          "internalType": "uint256",
          "name": "timestamp",
          "type": "uint256"
        },
        {
          "internalType": "string",
          "name": "email",
          "type": "string"
        },
        {
          "internalType": "string",
          "name": "website",
          "type": "string"
        },
        {
          "internalType": "address",
          "name": "minter",
          "type": "address"
        },
        {
          "internalType": "string",
          "name": "ipaddress",
          "type": "string"
        }
      ],
      "stateMutability": "view",
      "type": "function"
    },
    {
      "inputs": [],
      "name": "feeReciver",
      "outputs": [
        {
          "internalType": "address payable",
          "name": "",
          "type": "address"
        }
      ],
      "stateMutability": "view",
      "type": "function"
    },
    {
      "inputs": [
        {
          "internalType": "uint256",
          "name": "tokenId",
          "type": "uint256"
        }
      ],
      "name": "getApproved",
      "outputs": [
        {
          "internalType": "address",
          "name": "",
          "type": "address"
        }
      ],
      "stateMutability": "view",
      "type": "function"
    },
    {
      "inputs": [
        {
          "internalType": "address",
          "name": "owner",
          "type": "address"
        },
        {
          "internalType": "address",
          "name": "operator",
          "type": "address"
        }
      ],
      "name": "isApprovedForAll",
      "outputs": [
        {
          "internalType": "bool",
          "name": "",
          "type": "bool"
        }
      ],
      "stateMutability": "view",
      "type": "function"
    },
    {
      "inputs": [],
      "name": "name",
      "outputs": [
        {
          "internalType": "string",
          "name": "",
          "type": "string"
        }
      ],
      "stateMutability": "view",
      "type": "function"
    },
    {
      "inputs": [],
      "name": "owner",
      "outputs": [
        {
          "internalType": "address",
          "name": "",
          "type": "address"
        }
      ],
      "stateMutability": "view",
      "type": "function"
    },
    {
      "inputs": [
        {
          "internalType": "uint256",
          "name": "tokenId",
          "type": "uint256"
        }
      ],
      "name": "ownerOf",
      "outputs": [
        {
          "internalType": "address",
          "name": "",
          "type": "address"
        }
      ],
      "stateMutability": "view",
      "type": "function"
    },
    {
      "inputs": [],
      "name": "renounceOwnership",
      "outputs": [],
      "stateMutability": "nonpayable",
      "type": "function"
    },
    {
      "inputs": [
        {
          "internalType": "address",
          "name": "from",
          "type": "address"
        },
        {
          "internalType": "address",
          "name": "to",
          "type": "address"
        },
        {
          "internalType": "uint256",
          "name": "tokenId",
          "type": "uint256"
        }
      ],
      "name": "safeTransferFrom",
      "outputs": [],
      "stateMutability": "nonpayable",
      "type": "function"
    },
    {
      "inputs": [
        {
          "internalType": "address",
          "name": "from",
          "type": "address"
        },
        {
          "internalType": "address",
          "name": "to",
          "type": "address"
        },
        {
          "internalType": "uint256",
          "name": "tokenId",
          "type": "uint256"
        },
        {
          "internalType": "bytes",
          "name": "_data",
          "type": "bytes"
        }
      ],
      "name": "safeTransferFrom",
      "outputs": [],
      "stateMutability": "nonpayable",
      "type": "function"
    },
    {
      "inputs": [
        {
          "internalType": "address",
          "name": "operator",
          "type": "address"
        },
        {
          "internalType": "bool",
          "name": "approved",
          "type": "bool"
        }
      ],
      "name": "setApprovalForAll",
      "outputs": [],
      "stateMutability": "nonpayable",
      "type": "function"
    },
    {
      "inputs": [
        {
          "internalType": "bytes4",
          "name": "interfaceId",
          "type": "bytes4"
        }
      ],
      "name": "supportsInterface",
      "outputs": [
        {
          "internalType": "bool",
          "name": "",
          "type": "bool"
        }
      ],
      "stateMutability": "view",
      "type": "function"
    },
    {
      "inputs": [],
      "name": "symbol",
      "outputs": [
        {
          "internalType": "string",
          "name": "",
          "type": "string"
        }
      ],
      "stateMutability": "view",
      "type": "function"
    },
    {
      "inputs": [
        {
          "internalType": "uint256",
          "name": "index",
          "type": "uint256"
        }
      ],
      "name": "tokenByIndex",
      "outputs": [
        {
          "internalType": "uint256",
          "name": "",
          "type": "uint256"
        }
      ],
      "stateMutability": "view",
      "type": "function"
    },
    {
      "inputs": [
        {
          "internalType": "address",
          "name": "owner",
          "type": "address"
        },
        {
          "internalType": "uint256",
          "name": "index",
          "type": "uint256"
        }
      ],
      "name": "tokenOfOwnerByIndex",
      "outputs": [
        {
          "internalType": "uint256",
          "name": "",
          "type": "uint256"
        }
      ],
      "stateMutability": "view",
      "type": "function"
    },
    {
      "inputs": [
        {
          "internalType": "uint256",
          "name": "tokenId",
          "type": "uint256"
        }
      ],
      "name": "tokenURI",
      "outputs": [
        {
          "internalType": "string",
          "name": "",
          "type": "string"
        }
      ],
      "stateMutability": "view",
      "type": "function"
    },
    {
      "inputs": [],
      "name": "totalSupply",
      "outputs": [
        {
          "internalType": "uint256",
          "name": "",
          "type": "uint256"
        }
      ],
      "stateMutability": "view",
      "type": "function"
    },
    {
      "inputs": [
        {
          "internalType": "address",
          "name": "from",
          "type": "address"
        },
        {
          "internalType": "address",
          "name": "to",
          "type": "address"
        },
        {
          "internalType": "uint256",
          "name": "tokenId",
          "type": "uint256"
        }
      ],
      "name": "transferFrom",
      "outputs": [],
      "stateMutability": "nonpayable",
      "type": "function"
    },
    {
      "inputs": [
        {
          "internalType": "address",
          "name": "newOwner",
          "type": "address"
        }
      ],
      "name": "transferOwnership",
      "outputs": [],
      "stateMutability": "nonpayable",
      "type": "function"
    },
    {
      "stateMutability": "payable",
      "type": "receive"
    },
    {
      "inputs": [
        {
          "internalType": "string",
          "name": "_uuid",
          "type": "string"
        },
        {
          "internalType": "string",
          "name": "_title",
          "type": "string"
        },
        {
          "internalType": "string",
          "name": "_description",
          "type": "string"
        },
        {
          "internalType": "string",
          "name": "_uri",
          "type": "string"
        },
        {
          "internalType": "uint256",
          "name": "_validationDate",
          "type": "uint256"
        },
        {
          "internalType": "string",
          "name": "_email",
          "type": "string"
        },
        {
          "internalType": "string",
          "name": "_website",
          "type": "string"
        },
        {
          "internalType": "string",
          "name": "_ipaddress",
          "type": "string"
        }
      ],
      "name": "addDocument",
      "outputs": [
        {
          "internalType": "uint256",
          "name": "",
          "type": "uint256"
        }
      ],
      "stateMutability": "payable",
      "type": "function"
    },
    {
      "inputs": [
        {
          "internalType": "uint256",
          "name": "tokenId",
          "type": "uint256"
        }
      ],
      "name": "burnDocument",
      "outputs": [],
      "stateMutability": "nonpayable",
      "type": "function"
    },
    {
      "inputs": [
        {
          "internalType": "address payable",
          "name": "newReciver",
          "type": "address"
        }
      ],
      "name": "setNewRevicer",
      "outputs": [],
      "stateMutability": "nonpayable",
      "type": "function"
    },
    {
      "inputs": [
        {
          "internalType": "uint256",
          "name": "newFee",
          "type": "uint256"
        }
      ],
      "name": "setNewFeeInUSD",
      "outputs": [],
      "stateMutability": "nonpayable",
      "type": "function"
    },
    {
      "inputs": [
        {
          "internalType": "string",
          "name": "baseURI_",
          "type": "string"
        }
      ],
      "name": "setBaseURI",
      "outputs": [],
      "stateMutability": "nonpayable",
      "type": "function"
    },
    {
      "inputs": [
        {
          "internalType": "uint256",
          "name": "documentId",
          "type": "uint256"
        }
      ],
      "name": "getDocument",
      "outputs": [
        {
          "internalType": "uint256",
          "name": "id",
          "type": "uint256"
        },
        {
          "internalType": "string",
          "name": "uuid",
          "type": "string"
        },
        {
          "internalType": "string",
          "name": "title",
          "type": "string"
        },
        {
          "internalType": "string",
          "name": "description",
          "type": "string"
        },
        {
          "internalType": "string",
          "name": "uri",
          "type": "string"
        },
        {
          "internalType": "uint256",
          "name": "validationDate",
          "type": "uint256"
        },
        {
          "internalType": "uint256",
          "name": "timestamp",
          "type": "uint256"
        },
        {
          "internalType": "string",
          "name": "email",
          "type": "string"
        },
        {
          "internalType": "string",
          "name": "website",
          "type": "string"
        },
        {
          "internalType": "address",
          "name": "minter",
          "type": "address"
        },
        {
          "internalType": "string",
          "name": "ipaddress",
          "type": "string"
        }
      ],
      "stateMutability": "view",
      "type": "function"
    },
    {
      "inputs": [],
      "name": "getTotalDocuments",
      "outputs": [
        {
          "internalType": "uint256",
          "name": "",
          "type": "uint256"
        }
      ],
      "stateMutability": "view",
      "type": "function"
    },
    {
      "inputs": [],
      "name": "getCurrentPriceInEth",
      "outputs": [
        {
          "internalType": "uint256",
          "name": "",
          "type": "uint256"
        }
      ],
      "stateMutability": "view",
      "type": "function"
    },
    {
      "inputs": [
        {
          "internalType": "uint256",
          "name": "documentId",
          "type": "uint256"
        }
      ],
      "name": "getURI",
      "outputs": [
        {
          "internalType": "string",
          "name": "uri",
          "type": "string"
        }
      ],
      "stateMutability": "view",
      "type": "function"
    }
  ],
  "bytecode": "0x60806040523480156200001157600080fd5b506040516200379d3803806200379d8339810160408190526200003491620002c9565b6040518060400160405280600e81526020016d47656e657261746f722e70696e6b60901b8152506040518060400160405280600981526020016823a2a722a920aa27a960b91b81525060006200008f620001b260201b60201c565b600080546001600160a01b0319166001600160a01b0383169081178255604051929350917f8be0079c531659141344cd1fd0a4f28419497f9722a3daafe3b4186f6b6457e0908290a350620000eb6301ffc9a760e01b620001b6565b8151620001009060079060208501906200022d565b508051620001169060089060208401906200022d565b50620001296380ac58cd60e01b620001b6565b6200013b635b5e139f60e01b620001b6565b6200014d63780e9d6360e01b620001b6565b5050600c839055600b80546001600160a01b038085166001600160a01b031992831617909255600d80549284169290911691909117905560408051606081019091526022808252620001a991906200377b602083013962000214565b50505062000360565b3390565b6001600160e01b03198082161415620001ec5760405162461bcd60e51b8152600401620001e39062000310565b60405180910390fd5b6001600160e01b0319166000908152600160208190526040909120805460ff19169091179055565b80516200022990600a9060208401906200022d565b5050565b828054600181600116156101000203166002900490600052602060002090601f016020900481019282601f106200027057805160ff1916838001178555620002a0565b82800160010185558215620002a0579182015b82811115620002a057825182559160200191906001019062000283565b50620002ae929150620002b2565b5090565b5b80821115620002ae5760008155600101620002b3565b600080600060608486031215620002de578283fd5b835192506020840151620002f28162000347565b6040850151909250620003058162000347565b809150509250925092565b6020808252601c908201527f4552433136353a20696e76616c696420696e7465726661636520696400000000604082015260600190565b6001600160a01b03811681146200035d57600080fd5b50565b61340b80620003706000396000f3fe6080604052600436106101a75760003560e01c8063706a6c13116100e2578063b88d4fde11610085578063b88d4fde146104a4578063c2ed2b05146104c4578063c87b56dd146104e4578063d8f3f45c14610504578063db2bbabc14610519578063e90e7ad414610539578063e985e9c51461054e578063f2fde38b1461056e576101ae565b8063706a6c13146103dd57806370a08231146103fd578063715018a61461041d5780638afa0e45146104325780638da5cb5b14610445578063947991bc1461045a57806395d89b411461046f578063a22cb46514610484576101ae565b8063292e833b1161014a578063292e833b146102dc5780632f745c59146102f15780633f9b250a1461031157806342842e0e146103485780634f6ccce71461036857806355f804b3146103885780636352211e146103a85780636c0360eb146103c8576101ae565b806301ffc9a7146101b357806306fdde03146101e9578063081812fc1461020b578063095ea7b3146102385780630da12fe21461025a57806318160ddd1461027a5780631aa347dc1461029c57806323b872dd146102bc576101ae565b366101ae57005b600080fd5b3480156101bf57600080fd5b506101d36101ce3660046128fe565b61058e565b6040516101e09190612bb0565b60405180910390f35b3480156101f557600080fd5b506101fe6105b1565b6040516101e09190612bbb565b34801561021757600080fd5b5061022b610226366004612ac3565b610647565b6040516101e09190612b5f565b34801561024457600080fd5b506102586102533660046128d3565b610693565b005b34801561026657600080fd5b50610258610275366004612ac3565b61072b565b34801561028657600080fd5b5061028f61076f565b6040516101e09190613213565b3480156102a857600080fd5b506101fe6102b7366004612ac3565b610780565b3480156102c857600080fd5b506102586102d73660046127f8565b610791565b3480156102e857600080fd5b5061022b6107c9565b3480156102fd57600080fd5b5061028f61030c3660046128d3565b6107d8565b34801561031d57600080fd5b5061033161032c366004612ac3565b610801565b6040516101e09b9a9998979695949392919061321c565b34801561035457600080fd5b506102586103633660046127f8565b610d05565b34801561037457600080fd5b5061028f610383366004612ac3565b610d20565b34801561039457600080fd5b506102586103a3366004612936565b610d36565b3480156103b457600080fd5b5061022b6103c3366004612ac3565b610d81565b3480156103d457600080fd5b506101fe610da9565b3480156103e957600080fd5b506102586103f83660046127a4565b610e0a565b34801561040957600080fd5b5061028f6104183660046127a4565b610e6b565b34801561042957600080fd5b50610258610eb4565b61028f610440366004612969565b610f3d565b34801561045157600080fd5b5061022b611156565b34801561046657600080fd5b5061028f611165565b34801561047b57600080fd5b506101fe61116b565b34801561049057600080fd5b5061025861049f3660046128a2565b6111cc565b3480156104b057600080fd5b506102586104bf366004612838565b61129a565b3480156104d057600080fd5b506103316104df366004612ac3565b6112d9565b3480156104f057600080fd5b506101fe6104ff366004612ac3565b61172f565b34801561051057600080fd5b5061028f611875565b34801561052557600080fd5b50610258610534366004612ac3565b61187f565b34801561054557600080fd5b5061028f6118af565b34801561055a57600080fd5b506101d36105693660046127c0565b6118b5565b34801561057a57600080fd5b506102586105893660046127a4565b6118e3565b6001600160e01b0319811660009081526001602052604090205460ff165b919050565b60078054604080516020601f600260001961010060018816150201909516949094049384018190048102820181019092528281526060939092909183018282801561063d5780601f106106125761010080835404028352916020019161063d565b820191906000526020600020905b81548152906001019060200180831161062057829003601f168201915b5050505050905090565b6000610652826119a3565b6106775760405162461bcd60e51b815260040161066e90612f79565b60405180910390fd5b506000908152600560205260409020546001600160a01b031690565b600061069e82610d81565b9050806001600160a01b0316836001600160a01b031614156106d25760405162461bcd60e51b815260040161066e90613113565b806001600160a01b03166106e46119b0565b6001600160a01b031614806107005750610700816105696119b0565b61071c5760405162461bcd60e51b815260040161066e90612e1f565b61072683836119b4565b505050565b6107336119b0565b6001600160a01b0316610744611156565b6001600160a01b03161461076a5760405162461bcd60e51b815260040161066e90613011565b600c55565b600061077b6003611a22565b905090565b606061078b8261172f565b92915050565b6107a261079c6119b0565b82611a2d565b6107be5760405162461bcd60e51b815260040161066e9061318b565b610726838383611ab2565b600b546001600160a01b031681565b6001600160a01b03821660009081526002602052604081206107fa9083611bae565b9392505050565b6000606080606080600080606080600060606000600e8d8154811061082257fe5b90600052602060002090600b020190508c9b50806001018054600181600116156101000203166002900480601f0160208091040260200160405190810160405280929190818152602001828054600181600116156101000203166002900480156108cd5780601f106108a2576101008083540402835291602001916108cd565b820191906000526020600020905b8154815290600101906020018083116108b057829003601f168201915b50505050509a50806002018054600181600116156101000203166002900480601f01602080910402602001604051908101604052809291908181526020018280546001816001161561010002031660029004801561096c5780601f106109415761010080835404028352916020019161096c565b820191906000526020600020905b81548152906001019060200180831161094f57829003601f168201915b5050505060038301805460408051602060026001851615610100026000190190941693909304601f8101849004840282018401909252818152949e509192508301828280156109fc5780601f106109d1576101008083540402835291602001916109fc565b820191906000526020600020905b8154815290600101906020018083116109df57829003601f168201915b5050505060048301805460408051602060026001851615610100026000190190941693909304601f8101849004840282018401909252818152949d50919250830182828015610a8c5780601f10610a6157610100808354040283529160200191610a8c565b820191906000526020600020905b815481529060010190602001808311610a6f57829003601f168201915b505050506005830154600684015460028086018054604080516020601f6000196101006001871615020190941695909504928301859004850281018501909152818152969e50939c50919a50909250830182828015610b2c5780601f10610b0157610100808354040283529160200191610b2c565b820191906000526020600020905b815481529060010190602001808311610b0f57829003601f168201915b5050505060078301805460408051602060026001851615610100026000190190941693909304601f8101849004840282018401909252818152949e50919250830182828015610bbc5780601f10610b9157610100808354040283529160200191610bbc565b820191906000526020600020905b815481529060010190602001808311610b9f57829003601f168201915b5050505060088301805460408051602060026001851615610100026000190190941693909304601f8101849004840282018401909252818152949950919250830182828015610c4c5780601f10610c2157610100808354040283529160200191610c4c565b820191906000526020600020905b815481529060010190602001808311610c2f57829003601f168201915b505050506009830154600a8401805460408051602060026101006001861615026000190190941693909304601f81018490048402820184019092528181529599506001600160a01b039093169750909250830182828015610cee5780601f10610cc357610100808354040283529160200191610cee565b820191906000526020600020905b815481529060010190602001808311610cd157829003601f168201915b505050505091505091939597999b90929496989a50565b6107268383836040518060200160405280600081525061129a565b600080610d2e600384611bba565b509392505050565b610d3e6119b0565b6001600160a01b0316610d4f611156565b6001600160a01b031614610d755760405162461bcd60e51b815260040161066e90613011565b610d7e81611bd6565b50565b600061078b8260405180606001604052806029815260200161338d6029913960039190611bed565b600a8054604080516020601f600260001961010060018816150201909516949094049384018190048102820181019092528281526060939092909183018282801561063d5780601f106106125761010080835404028352916020019161063d565b610e126119b0565b6001600160a01b0316610e23611156565b6001600160a01b031614610e495760405162461bcd60e51b815260040161066e90613011565b600b80546001600160a01b0319166001600160a01b0392909216919091179055565b60006001600160a01b038216610e935760405162461bcd60e51b815260040161066e90612e77565b6001600160a01b038216600090815260026020526040902061078b90611a22565b610ebc6119b0565b6001600160a01b0316610ecd611156565b6001600160a01b031614610ef35760405162461bcd60e51b815260040161066e90613011565b600080546040516001600160a01b03909116907f8be0079c531659141344cd1fd0a4f28419497f9722a3daafe3b4186f6b6457e0908390a3600080546001600160a01b0319169055565b600080610f48611bfa565b90503481811015610f6b5760405162461bcd60e51b815260040161066e90612d56565b600e54610f766125e4565b50604080516101608101825282815260208082018f81529282018e9052606082018d9052608082018c905260a082018b90524260c083015260e082018a90526101008201899052336101208301526101408201889052600e805460018101825560009190915282517fbb7b4a454dc3493923482f07822329ed19e8244eff582cc204f8554c3620c3fd600b90920291820190815593518051939485949093611042937fbb7b4a454dc3493923482f07822329ed19e8244eff582cc204f8554c3620c3fe01920190612647565b506040820151805161105e916002840191602090910190612647565b506060820151805161107a916003840191602090910190612647565b5060808201518051611096916004840191602090910190612647565b5060a0820151600582015560c0820151600682015560e082015180516110c6916007840191602090910190612647565b5061010082015180516110e3916008840191602090910190612647565b506101208201516009820180546001600160a01b0319166001600160a01b03909216919091179055610140820151805161112791600a840191602090910190612647565b5050506111343383611c9a565b61113e828b611cb4565b611146611cf8565b509b9a5050505050505050505050565b6000546001600160a01b031690565b600c5481565b60088054604080516020601f600260001961010060018816150201909516949094049384018190048102820181019092528281526060939092909183018282801561063d5780601f106106125761010080835404028352916020019161063d565b6111d46119b0565b6001600160a01b0316826001600160a01b031614156112055760405162461bcd60e51b815260040161066e90612d23565b80600660006112126119b0565b6001600160a01b03908116825260208083019390935260409182016000908120918716808252919093529120805460ff1916921515929092179091556112566119b0565b6001600160a01b03167f17307eab39ab6107e8899845ad3d59bd9653f200f220920489ca2b5937696c318360405161128e9190612bb0565b60405180910390a35050565b6112ab6112a56119b0565b83611a2d565b6112c75760405162461bcd60e51b815260040161066e9061318b565b6112d384848484611d31565b50505050565b600e81815481106112e657fe5b90600052602060002090600b0201600091509050806000015490806001018054600181600116156101000203166002900480601f0160208091040260200160405190810160405280929190818152602001828054600181600116156101000203166002900480156113985780601f1061136d57610100808354040283529160200191611398565b820191906000526020600020905b81548152906001019060200180831161137b57829003601f168201915b50505060028085018054604080516020601f600019610100600187161502019094169590950492830185900485028101850190915281815295969594509092509083018282801561142a5780601f106113ff5761010080835404028352916020019161142a565b820191906000526020600020905b81548152906001019060200180831161140d57829003601f168201915b5050505060038301805460408051602060026001851615610100026000190190941693909304601f81018490048402820184019092528181529495949350908301828280156114ba5780601f1061148f576101008083540402835291602001916114ba565b820191906000526020600020905b81548152906001019060200180831161149d57829003601f168201915b5050505060048301805460408051602060026001851615610100026000190190941693909304601f810184900484028201840190925281815294959493509083018282801561154a5780601f1061151f5761010080835404028352916020019161154a565b820191906000526020600020905b81548152906001019060200180831161152d57829003601f168201915b505050505090806005015490806006015490806007018054600181600116156101000203166002900480601f0160208091040260200160405190810160405280929190818152602001828054600181600116156101000203166002900480156115f45780601f106115c9576101008083540402835291602001916115f4565b820191906000526020600020905b8154815290600101906020018083116115d757829003601f168201915b5050505060088301805460408051602060026001851615610100026000190190941693909304601f81018490048402820184019092528181529495949350908301828280156116845780601f1061165957610100808354040283529160200191611684565b820191906000526020600020905b81548152906001019060200180831161166757829003601f168201915b505050506009830154600a8401805460408051602060026101006001861615026000190190941693909304601f810184900484028201840190925281815295966001600160a01b0390941695939450908301828280156117255780601f106116fa57610100808354040283529160200191611725565b820191906000526020600020905b81548152906001019060200180831161170857829003601f168201915b505050505090508b565b606061173a826119a3565b6117565760405162461bcd60e51b815260040161066e9061308f565b60008281526009602090815260409182902080548351601f60026000196101006001861615020190931692909204918201849004840281018401909452808452606093928301828280156117eb5780601f106117c0576101008083540402835291602001916117eb565b820191906000526020600020905b8154815290600101906020018083116117ce57829003601f168201915b5050505050905060606117fc610da9565b9050805160001415611810575090506105ac565b81511561184257808260405160200161182a929190612b30565b604051602081830303815290604052925050506105ac565b8061184c85611d64565b60405160200161185d929190612b30565b60405160208183030381529060405292505050919050565b600061077b611bfa565b61188a61079c6119b0565b6118a65760405162461bcd60e51b815260040161066e906130de565b610d7e81611e3f565b600e5490565b6001600160a01b03918216600090815260066020908152604080832093909416825291909152205460ff1690565b6118eb6119b0565b6001600160a01b03166118fc611156565b6001600160a01b0316146119225760405162461bcd60e51b815260040161066e90613011565b6001600160a01b0381166119485760405162461bcd60e51b815260040161066e90612c62565b600080546040516001600160a01b03808516939216917f8be0079c531659141344cd1fd0a4f28419497f9722a3daafe3b4186f6b6457e091a3600080546001600160a01b0319166001600160a01b0392909216919091179055565b600061078b600383611efa565b3390565b600081815260056020526040902080546001600160a01b0319166001600160a01b03841690811790915581906119e982610d81565b6001600160a01b03167f8c5be1e5ebec7d5bd14f71427d1e84f3dd0314c0f7b2291e5b200ac8c7c3b92560405160405180910390a45050565b600061078b82611f06565b6000611a38826119a3565b611a545760405162461bcd60e51b815260040161066e90612dd3565b6000611a5f83610d81565b9050806001600160a01b0316846001600160a01b03161480611a9a5750836001600160a01b0316611a8f84610647565b6001600160a01b0316145b80611aaa5750611aaa81856118b5565b949350505050565b826001600160a01b0316611ac582610d81565b6001600160a01b031614611aeb5760405162461bcd60e51b815260040161066e90613046565b6001600160a01b038216611b115760405162461bcd60e51b815260040161066e90612cdf565b611b1c838383610726565b611b276000826119b4565b6001600160a01b0383166000908152600260205260409020611b499082611f0a565b506001600160a01b0382166000908152600260205260409020611b6c9082611f16565b50611b7960038284611f22565b5080826001600160a01b0316846001600160a01b03166000805160206133b683398151915260405160405180910390a4505050565b60006107fa8383611f38565b6000808080611bc98686611f7d565b9097909650945050505050565b8051611be990600a906020840190612647565b5050565b6000611aaa848484611fd9565b6000611c046126c5565b600d5460405163195556f360e21b81526001600160a01b03909116906365555bcc90611c3290600401613154565b60606040518083038186803b158015611c4a57600080fd5b505afa158015611c5e573d6000803e3d6000fd5b505050506040513d601f19601f82011682018060405250810190611c829190612a86565b600c548151919250611c949190612038565b91505090565b611be9828260405180602001604052806000815250612072565b611cbd826119a3565b611cd95760405162461bcd60e51b815260040161066e90612fc5565b6000828152600960209081526040909120825161072692840190612647565b600b546040516001600160a01b03909116904780156108fc02916000818181858888f19350505050158015610d7e573d6000803e3d6000fd5b611d3c848484611ab2565b611d48848484846120a5565b6112d35760405162461bcd60e51b815260040161066e90612c10565b606081611d8957506040805180820190915260018152600360fc1b60208201526105ac565b8160005b8115611da157600101600a82049150611d8d565b60608167ffffffffffffffff81118015611dba57600080fd5b506040519080825280601f01601f191660200182016040528015611de5576020820181803683370190505b50859350905060001982015b8315611e3657600a840660300160f81b82828060019003935081518110611e1457fe5b60200101906001600160f81b031916908160001a905350600a84049350611df1565b50949350505050565b6000611e4a82610d81565b9050611e5881600084610726565b611e636000836119b4565b6000828152600960205260409020546002600019610100600184161502019091160415611ea1576000828152600960205260408120611ea1916126e6565b6001600160a01b0381166000908152600260205260409020611ec39083611f0a565b50611ecf600383612184565b5060405182906000906001600160a01b038416906000805160206133b6833981519152908390a45050565b60006107fa8383612190565b5490565b60006107fa83836121a8565b60006107fa838361226e565b6000611aaa84846001600160a01b0385166122b8565b81546000908210611f5b5760405162461bcd60e51b815260040161066e90612bce565b826000018281548110611f6a57fe5b9060005260206000200154905092915050565b815460009081908310611fa25760405162461bcd60e51b815260040161066e90612ec1565b6000846000018481548110611fb357fe5b906000526020600020906002020190508060000154816001015492509250509250929050565b600082815260018401602052604081205482816120095760405162461bcd60e51b815260040161066e9190612bbb565b5084600001600182038154811061201c57fe5b9060005260206000209060020201600101549150509392505050565b6000826120475750600061078b565b8282028284828161205457fe5b04146107fa5760405162461bcd60e51b815260040161066e90612f38565b61207c838361234f565b61208960008484846120a5565b6107265760405162461bcd60e51b815260040161066e90612c10565b60006120b9846001600160a01b0316612401565b6120c557506001611aaa565b606061214d630a85bd0160e11b6120da6119b0565b8887876040516024016120f09493929190612b73565b604051602081830303815290604052906001600160e01b0319166020820180516001600160e01b03838183161783525050505060405180606001604052806032815260200161335b603291396001600160a01b0388169190612407565b9050600081806020019051810190612165919061291a565b6001600160e01b031916630a85bd0160e11b1492505050949350505050565b60006107fa8383612416565b60009081526001919091016020526040902054151590565b6000818152600183016020526040812054801561226457835460001980830191908101906000908790839081106121db57fe5b90600052602060002001549050808760000184815481106121f857fe5b60009182526020808320909101929092558281526001898101909252604090209084019055865487908061222857fe5b6001900381819060005260206000200160009055905586600101600087815260200190815260200160002060009055600194505050505061078b565b600091505061078b565b600061227a8383612190565b6122b05750815460018181018455600084815260208082209093018490558454848252828601909352604090209190915561078b565b50600061078b565b60008281526001840160205260408120548061231d5750506040805180820182528381526020808201848152865460018181018955600089815284812095516002909302909501918255915190820155865486845281880190925292909120556107fa565b8285600001600183038154811061233057fe5b90600052602060002090600202016001018190555060009150506107fa565b6001600160a01b0382166123755760405162461bcd60e51b815260040161066e90612f03565b61237e816119a3565b1561239b5760405162461bcd60e51b815260040161066e90612ca8565b6123a760008383610726565b6001600160a01b03821660009081526002602052604090206123c99082611f16565b506123d660038284611f22565b5060405181906001600160a01b038416906000906000805160206133b6833981519152908290a45050565b3b151590565b6060611aaa84846000856124ea565b60008181526001830160205260408120548015612264578354600019808301919081019060009087908390811061244957fe5b906000526020600020906002020190508087600001848154811061246957fe5b6000918252602080832084546002909302019182556001938401549184019190915583548252898301905260409020908401905586548790806124a857fe5b600082815260208082206002600019909401938402018281556001908101839055929093558881528982019092526040822091909155945061078b9350505050565b60608247101561250c5760405162461bcd60e51b815260040161066e90612d8d565b61251585612401565b6125315760405162461bcd60e51b815260040161066e906131dc565b60006060866001600160a01b0316858760405161254e9190612b14565b60006040518083038185875af1925050503d806000811461258b576040519150601f19603f3d011682016040523d82523d6000602084013e612590565b606091505b50915091506125a08282866125ab565b979650505050505050565b606083156125ba5750816107fa565b8251156125ca5782518084602001fd5b8160405162461bcd60e51b815260040161066e9190612bbb565b60405180610160016040528060008152602001606081526020016060815260200160608152602001606081526020016000815260200160008152602001606081526020016060815260200160006001600160a01b03168152602001606081525090565b828054600181600116156101000203166002900490600052602060002090601f016020900481019282601f1061268857805160ff19168380011785556126b5565b828001600101855582156126b5579182015b828111156126b557825182559160200191906001019061269a565b506126c1929150612726565b5090565b60405180606001604052806000815260200160008152602001600081525090565b50805460018160011615610100020316600290046000825580601f1061270c5750610d7e565b601f016020900490600052602060002090810190610d7e91905b5b808211156126c15760008155600101612727565b600082601f83011261274b578081fd5b813567ffffffffffffffff811115612761578182fd5b612774601f8201601f19166020016132dc565b915080825283602082850101111561278b57600080fd5b8060208401602084013760009082016020015292915050565b6000602082840312156127b5578081fd5b81356107fa8161332f565b600080604083850312156127d2578081fd5b82356127dd8161332f565b915060208301356127ed8161332f565b809150509250929050565b60008060006060848603121561280c578081fd5b83356128178161332f565b925060208401356128278161332f565b929592945050506040919091013590565b6000806000806080858703121561284d578081fd5b84356128588161332f565b935060208501356128688161332f565b925060408501359150606085013567ffffffffffffffff81111561288a578182fd5b6128968782880161273b565b91505092959194509250565b600080604083850312156128b4578182fd5b82356128bf8161332f565b9150602083013580151581146127ed578182fd5b600080604083850312156128e5578182fd5b82356128f08161332f565b946020939093013593505050565b60006020828403121561290f578081fd5b81356107fa81613344565b60006020828403121561292b578081fd5b81516107fa81613344565b600060208284031215612947578081fd5b813567ffffffffffffffff81111561295d578182fd5b611aaa8482850161273b565b600080600080600080600080610100898b031215612985578384fd5b883567ffffffffffffffff8082111561299c578586fd5b6129a88c838d0161273b565b995060208b01359150808211156129bd578586fd5b6129c98c838d0161273b565b985060408b01359150808211156129de578586fd5b6129ea8c838d0161273b565b975060608b01359150808211156129ff578586fd5b612a0b8c838d0161273b565b965060808b0135955060a08b0135915080821115612a27578485fd5b612a338c838d0161273b565b945060c08b0135915080821115612a48578384fd5b612a548c838d0161273b565b935060e08b0135915080821115612a69578283fd5b50612a768b828c0161273b565b9150509295985092959890939650565b600060608284031215612a97578081fd5b612aa160606132dc565b8251815260208301516020820152604083015160408201528091505092915050565b600060208284031215612ad4578081fd5b5035919050565b6001600160a01b03169052565b60008151808452612b00816020860160208601613303565b601f01601f19169290920160200192915050565b60008251612b26818460208701613303565b9190910192915050565b60008351612b42818460208801613303565b835190830190612b56818360208801613303565b01949350505050565b6001600160a01b0391909116815260200190565b6001600160a01b0385811682528416602082015260408101839052608060608201819052600090612ba690830184612ae8565b9695505050505050565b901515815260200190565b6000602082526107fa6020830184612ae8565b60208082526022908201527f456e756d657261626c655365743a20696e646578206f7574206f6620626f756e604082015261647360f01b606082015260800190565b60208082526032908201527f4552433732313a207472616e7366657220746f206e6f6e20455243373231526560408201527131b2b4bb32b91034b6b83632b6b2b73a32b960711b606082015260800190565b60208082526026908201527f4f776e61626c653a206e6577206f776e657220697320746865207a65726f206160408201526564647265737360d01b606082015260800190565b6020808252601c908201527f4552433732313a20746f6b656e20616c7265616479206d696e74656400000000604082015260600190565b60208082526024908201527f4552433732313a207472616e7366657220746f20746865207a65726f206164646040820152637265737360e01b606082015260800190565b60208082526019908201527822a9219b99189d1030b8383937bb32903a379031b0b63632b960391b604082015260600190565b6020808252601d908201527f6d73672e73656e64657220646964206e6f742070617920656e6f756768000000604082015260600190565b60208082526026908201527f416464726573733a20696e73756666696369656e742062616c616e636520666f6040820152651c8818d85b1b60d21b606082015260800190565b6020808252602c908201527f4552433732313a206f70657261746f7220717565727920666f72206e6f6e657860408201526b34b9ba32b73a103a37b5b2b760a11b606082015260800190565b60208082526038908201527f4552433732313a20617070726f76652063616c6c6572206973206e6f74206f776040820152771b995c881b9bdc88185c1c1c9bdd995908199bdc88185b1b60421b606082015260800190565b6020808252602a908201527f4552433732313a2062616c616e636520717565727920666f7220746865207a65604082015269726f206164647265737360b01b606082015260800190565b60208082526022908201527f456e756d657261626c654d61703a20696e646578206f7574206f6620626f756e604082015261647360f01b606082015260800190565b6020808252818101527f4552433732313a206d696e7420746f20746865207a65726f2061646472657373604082015260600190565b60208082526021908201527f536166654d6174683a206d756c7469706c69636174696f6e206f766572666c6f6040820152607760f81b606082015260800190565b6020808252602c908201527f4552433732313a20617070726f76656420717565727920666f72206e6f6e657860408201526b34b9ba32b73a103a37b5b2b760a11b606082015260800190565b6020808252602c908201527f4552433732314d657461646174613a2055524920736574206f66206e6f6e657860408201526b34b9ba32b73a103a37b5b2b760a11b606082015260800190565b6020808252818101527f4f776e61626c653a2063616c6c6572206973206e6f7420746865206f776e6572604082015260600190565b60208082526029908201527f4552433732313a207472616e73666572206f6620746f6b656e2074686174206960408201526839903737ba1037bbb760b91b606082015260800190565b6020808252602f908201527f4552433732314d657461646174613a2055524920717565727920666f72206e6f60408201526e3732bc34b9ba32b73a103a37b5b2b760891b606082015260800190565b6020808252818101527f63616c6c6572206973206e6f74206f776e6572206e6f7220617070726f766564604082015260600190565b60208082526021908201527f4552433732313a20617070726f76616c20746f2063757272656e74206f776e656040820152603960f91b606082015260800190565b60408082526003908201819052621554d160ea1b60608301526080602083018190528201526208aa8960eb1b60a082015260c00190565b60208082526031908201527f4552433732313a207472616e736665722063616c6c6572206973206e6f74206f6040820152701ddb995c881b9bdc88185c1c1c9bdd9959607a1b606082015260800190565b6020808252601d908201527f416464726573733a2063616c6c20746f206e6f6e2d636f6e7472616374000000604082015260600190565b90815260200190565b60006101608d83528060208401526132368184018e612ae8565b9050828103604084015261324a818d612ae8565b9050828103606084015261325e818c612ae8565b90508281036080840152613272818b612ae8565b90508860a08401528760c084015282810360e08401526132928188612ae8565b90508281036101008401526132a78187612ae8565b90506132b7610120840186612adb565b8281036101408401526132ca8185612ae8565b9e9d5050505050505050505050505050565b60405181810167ffffffffffffffff811182821017156132fb57600080fd5b604052919050565b60005b8381101561331e578181015183820152602001613306565b838111156112d35750506000910152565b6001600160a01b0381168114610d7e57600080fd5b6001600160e01b031981168114610d7e57600080fdfe4552433732313a207472616e7366657220746f206e6f6e20455243373231526563656976657220696d706c656d656e7465724552433732313a206f776e657220717565727920666f72206e6f6e6578697374656e7420746f6b656eddf252ad1be2c89b69c2b068fc378daa952ba7f163c4a11628f55a4df523b3efa2646970667358221220cd00c4c115aaebaf08da4a3ba93031dd4e540eae42afc98957ca5e2d0e8300b664736f6c6343000700003368747470733a2f2f676174657761792e70696e6174612e636c6f75642f697066732f",
  "immutableReferences": {},
  "source": "pragma solidity 0.7.0; \npragma experimental ABIEncoderV2;\n\nimport \"@openzeppelin/contracts/math/SafeMath.sol\";\nimport \"@openzeppelin/contracts/access/Ownable.sol\";\nimport \"@openzeppelin/contracts/token/ERC721/ERC721.sol\";\n\ninterface IStdReference {\n    /// A structure returned whenever someone requests for standard reference data.\n    struct ReferenceData {\n        uint256 rate; // base/quote exchange rate, multiplied by 1e18.\n        uint256 lastUpdatedBase; // UNIX epoch of the last time when base price gets updated.\n        uint256 lastUpdatedQuote; // UNIX epoch of the last time when quote price gets updated.\n    }\n\n    /// Returns the price data for the given base/quote pair. Revert if not available.\n    function getReferenceData(string memory _base, string memory _quote)\n        external\n        view\n        returns (ReferenceData memory);\n\n    /// Similar to getReferenceData, but with multiple base/quote pairs at once.\n    function getReferenceDataBulk(string[] memory _bases, string[] memory _quotes)\n        external\n        view\n        returns (ReferenceData[] memory);\n}\n\n\n\ncontract GeneratorBase is Ownable, ERC721(\"Generator.pink\",\"GENERATOR\") {\n\n    /* ========== Structs and contracts variables ========== */\n    using SafeMath for uint256;\n    // The address the recives all the fees from the contract\n    address payable public feeReciver; \n    // The fee amount denominated in USD amount Ex. 1 USD = 1* 10^18;\n    uint256 public USD_FEE; \n\n    // The oracle refferance address\n    IStdReference ref;\n\n   \n    struct Document {\n        uint256 id;\n\n        string uuid;\n\n        // Token Title\n        string title;\n        // Description of connected file\n        string description;\n        // Link to document\n        string uri; \n        // Validity Date\n        uint validationDate; \n        // Mint timestamp.\n        uint timestamp; \n\n        string email; \n\n        string website; \n\n        address minter; \n\n        string ipaddress; \n    }\n\n    Document[] public documents;\n\n    /* ========== CONSTRUCTOR ========== */\n\n    /**\n     * @dev \n     * @param _fee the base fee nominated in USD only NO DECIMAL NUMBERS ACCEPTED.\n     * @param _reciver This is the address where all the fee's will be sent to. \n     */\n    constructor (\n        uint256 _fee,\n        address payable _reciver,\n        IStdReference _ref\n    ) {\n        USD_FEE = _fee;\n        feeReciver = _reciver;\n        ref = _ref;\n        _setBaseURI('https://gateway.pinata.cloud/ipfs/');\n\n    }\n\n    /* ========== EXTERNAL MUTABLE FUNCTIONS ========== */\n    \n    /**\n     * @dev  Add a document\n     * @param _title Title of the document.\n     * @param _description Short Description. \n     * @param _uri The URI. \n     * @param _validationDate Validation Date of document.\n     * @param _email Email address of the creator\n     * @param _website Website of creator.\n     */\n    function addDocument (\n        string memory _uuid,\n        string memory _title,\n        string memory _description, \n        string memory _uri, \n        uint256 _validationDate,\n        string memory _email, \n        string memory _website,\n        string memory _ipaddress\n    ) public payable returns(uint256) {\n        // handle the payment for the minting proccess.\n\n            // save the current price \n            uint256 amountToPay = get_FEE_IN_ETH();\n            uint256 amountPayed = msg.value;\n\n            // require that the caller has send enough to the contract\n            require(amountPayed >= amountToPay, 'msg.sender did not pay enough');\n\n\n        // handle the minting of the new token.\n\n        // Grab the ID of the document to make. \n        uint256 newid = documents.length; \n        // Assemble the struct. \n        Document memory newDoc = Document({\n            id: newid,\n            uuid: _uuid,\n            title: _title,\n            description: _description,\n            uri: _uri,\n            validationDate: _validationDate,\n            timestamp: block.timestamp,\n            email: _email,\n            website: _website,\n            minter: msg.sender,\n            ipaddress: _ipaddress\n        });\n        // Push it to the array \n        documents.push(newDoc); \n\n        // mint the token to this address\n        _safeMint(msg.sender, newid);\n\n        _setTokenURI(newid, _uri);\n\n        payReciver();\n\n        return  newid; \n    }\n\n\n    function burnDocument(uint256 tokenId) public {\n        require(_isApprovedOrOwner(_msgSender(), tokenId), \"caller is not owner nor approved\");\n        _burn(tokenId);\n    } \n\n    /** \n     * @dev sets a new reciver for the fee. \n     * @param newReciver .\n     */\n    function setNewRevicer(address payable newReciver) public onlyOwner {\n        feeReciver = newReciver;\n\n    }\n\n     /** \n     * @dev sets a new fee amount in USD. Ex. 1 USD. NOT 0.1 USD NO DECIMALS POSSIBLE\n     * @param newFee .\n     */\n    function setNewFeeInUSD(uint256 newFee) public onlyOwner {\n        USD_FEE = newFee;\n\n    }\n\n    function setBaseURI(string memory baseURI_) public onlyOwner {\n        _setBaseURI(baseURI_);\n    }\n\n    /* ========== VIEW FUNCTIONS ========== */\n    /**\n     * @dev  Get the info from the document. \n     * @param documentId the ID of the document you want to retrive info from.\n     */\n    function getDocument(uint256 documentId) \n        public\n        view\n        returns (\n            uint256 id,\n            string memory uuid, \n            string memory title, \n            string memory description, \n            string memory uri, \n            uint256 validationDate,\n            uint256 timestamp, \n            string memory email, \n            string memory website,\n            address minter,\n            string memory ipaddress\n        )\n    {\n        Document storage doc = documents[documentId];\n        id = documentId; \n        uuid = doc.uuid;\n        title = doc.title; \n        description = doc.description; \n        uri = doc.uri;\n        validationDate = doc.validationDate;\n        timestamp = doc.timestamp;\n        title = doc.title;\n        email = doc.email;\n        website = doc.website;\n        minter = doc.minter;\n        ipaddress = doc.ipaddress;\n    }\n\n    function getTotalDocuments () public view returns (uint256) {\n        return documents.length;\n    }\n    \n    function getCurrentPriceInEth() public view returns (uint256) {\n        return get_FEE_IN_ETH();\n    }\n\n    function getURI(uint256 documentId) external view returns (string memory uri) {\n        uri = tokenURI(documentId);\n    }\n    \n    /* ========== INTERNAL FUNCTIONS ========== */\n\n    /**\n     * @dev  Function to return the price of 1 USD in ETH. Then multiplied by the USD_FEE to get the correct ETH value. Using BAND oracle contract for this. \n     */\n\n    function get_FEE_IN_ETH() internal view returns(uint256){\n        IStdReference.ReferenceData memory data = ref.getReferenceData('USD', 'ETH');\n        return data.rate.mul(USD_FEE);\n    }\n\n    function payReciver() internal {\n        feeReciver.transfer(address(this).balance);\n    }\n\n    \n\n    /* ====== MODIFIERS ====== */\n\n     \n\n    /* ====== FALLBACK ====== */\n\n    receive() external payable {}\n   \n}\n",
  "sourcePath": "/Users/lexcalebout/Desktop/Dev-Projects/generator/packages/contracts/contracts/GeneratorBase.sol",
  "compiler": {
    "name": "solc",
    "version": "0.7.0+commit.9e61f92b.Emscripten.clang"
  },
  "schemaVersion": "3.3.4",
  "updatedAt": "2021-05-03T12:59:54.466Z",
  "devdoc": {
    "kind": "dev",
    "methods": {
      "addDocument(string,string,string,string,uint256,string,string,string)": {
        "details": "Add a document",
        "params": {
          "_description": "Short Description. ",
          "_email": "Email address of the creator",
          "_title": "Title of the document.",
          "_uri": "The URI. ",
          "_validationDate": "Validation Date of document.",
          "_website": "Website of creator."
        }
      },
      "approve(address,uint256)": {
        "details": "See {IERC721-approve}."
      },
      "balanceOf(address)": {
        "details": "See {IERC721-balanceOf}."
      },
      "baseURI()": {
        "details": "Returns the base URI set via {_setBaseURI}. This will be automatically added as a prefix in {tokenURI} to each token's URI, or to the token ID if no specific URI is set for that token ID."
      },
      "constructor": {
        "params": {
          "_fee": "the base fee nominated in USD only NO DECIMAL NUMBERS ACCEPTED.",
          "_reciver": "This is the address where all the fee's will be sent to. "
        }
      },
      "getApproved(uint256)": {
        "details": "See {IERC721-getApproved}."
      },
      "getDocument(uint256)": {
        "details": "Get the info from the document. ",
        "params": {
          "documentId": "the ID of the document you want to retrive info from."
        }
      },
      "isApprovedForAll(address,address)": {
        "details": "See {IERC721-isApprovedForAll}."
      },
      "name()": {
        "details": "See {IERC721Metadata-name}."
      },
      "owner()": {
        "details": "Returns the address of the current owner."
      },
      "ownerOf(uint256)": {
        "details": "See {IERC721-ownerOf}."
      },
      "renounceOwnership()": {
        "details": "Leaves the contract without owner. It will not be possible to call `onlyOwner` functions anymore. Can only be called by the current owner. NOTE: Renouncing ownership will leave the contract without an owner, thereby removing any functionality that is only available to the owner."
      },
      "safeTransferFrom(address,address,uint256)": {
        "details": "See {IERC721-safeTransferFrom}."
      },
      "safeTransferFrom(address,address,uint256,bytes)": {
        "details": "See {IERC721-safeTransferFrom}."
      },
      "setApprovalForAll(address,bool)": {
        "details": "See {IERC721-setApprovalForAll}."
      },
      "setNewFeeInUSD(uint256)": {
        "details": "sets a new fee amount in USD. Ex. 1 USD. NOT 0.1 USD NO DECIMALS POSSIBLE",
        "params": {
          "newFee": "."
        }
      },
      "setNewRevicer(address)": {
        "details": "sets a new reciver for the fee. ",
        "params": {
          "newReciver": "."
        }
      },
      "supportsInterface(bytes4)": {
        "details": "See {IERC165-supportsInterface}. Time complexity O(1), guaranteed to always use less than 30 000 gas."
      },
      "symbol()": {
        "details": "See {IERC721Metadata-symbol}."
      },
      "tokenByIndex(uint256)": {
        "details": "See {IERC721Enumerable-tokenByIndex}."
      },
      "tokenOfOwnerByIndex(address,uint256)": {
        "details": "See {IERC721Enumerable-tokenOfOwnerByIndex}."
      },
      "tokenURI(uint256)": {
        "details": "See {IERC721Metadata-tokenURI}."
      },
      "totalSupply()": {
        "details": "See {IERC721Enumerable-totalSupply}."
      },
      "transferFrom(address,address,uint256)": {
        "details": "See {IERC721-transferFrom}."
      },
      "transferOwnership(address)": {
        "details": "Transfers ownership of the contract to a new account (`newOwner`). Can only be called by the current owner."
      }
    },
    "version": 1
  },
  "userdoc": {
    "kind": "user",
    "methods": {},
    "version": 1
  }
}